:020000041000EA
:1004000000C002082B0500100D0000008D05001033
:1004100000000000000000000000000000000000DC
:10042000000000000000000000000000890500102E
:100430000000000000000000890500108905001080
:100440008905001089050010890500108905001034
:100450008905001089050010890500108905001024
:100460008905001089050010890500108905001014
:100470008905001089050010890500108905001004
:1004800089050010890500108905001089050010F4
:1004900089050010890500108905001089050010E4
:1004A00089050010890500108905001089050010D4
:1004B00089050010890500108905001089050010C4
:1004C00010B5064C2378002B07D1054B002B02D02A
:1004D000044800E000BF0123237010BD7806020825
:1004E00000000000607D0010044B10B5002B03D00D
:1004F0000349044800E000BF10BDC04600000000F2
:100500007C060208607D00100230800803D00130B4
:100510000238FCD1C046C0467047EFF3108072B677
:10052000704780F3108870477047FFF7FDFF72B681
:100530000F4C104DAC4209DA21686268A368043B95
:1005400002DBC858D050FAE70C34F3E70A490B4AEB
:100550000020521A02DD043A8850FCDC08480949A0
:100560000860BFF34F8F06F0C9FC06F053FCFEE7AE
:100570006C7D0010847D0010780602083C0C020897
:100580000000020808ED00E0FEE7FEE700B50420E9
:100590007146084202D0EFF3098001E0EFF30880D2
:1005A000043005F05FFEFEE70300093B0122042B47
:1005B00002D920384242424110007047F0B5002570
:1005C000170006002C0089B003930E9B02901B0CB1
:1005D000DBB204930E9B00911B0ADBB205930E9BCA
:1005E000DBB20793731C069333780193002B08D07A
:1005F000009B002B22DB029A731C9B1A009A9A42E2
:100600001CDA0E9BDBB2002B00D1B4E0019A9A42B7
:1006100000D0AEE0009B002B06DB029A731C9B1AF5
:10062000009A934200DDA4E0B31C7678032D00D934
:10063000A1E0280006F006FD8989637B0198FFF799
:10064000B3FF002839D1079B019A9342D9D04F4E6E
:100650001100300006F0C2FF031E08D1049B019A6E
:1006600093420BD0059B93426FD133003F33032D50
:1006700023D8280006F0E6FC0510233533003E336E
:10068000F5E7002F06D0039A94425ED23F4A9B1AA8
:100690009B003B55012510E0621C002F0BD00399F5
:1006A0008A4252D239493C195B1A21781811014308
:1006B0001B012170BB5414000225069E92E7621CA8
:1006C000002F0BD003998A423FD230493C195B1A64
:1006D0002178981001439B012170BB54140003251D
:1006E000EBE7002F08D0039A94422ED227493A19FB
:1006F0005B1A11780B43137001340025DDE71D00F0
:10070000002E22D0009B002B22DB029B009AEB1ACA
:100710009A421DDA019BB34217D1009B002B04DDE6
:10072000029B009AEB1A93420FDC2E786B1C029A04
:100730009D1A002E04D0009B002B11DBAB420FDA78
:10074000002F18D03B5D002B15D00124644219E026
:100750003000FFF729FF0028DCD02E780135CFE7E5
:100760003000FFF721FF0028EFD0029B5E5D0135CE
:10077000DFE7002DE9D1039B9C42E6D2002F01D098
:1007800000233B55200009B0F0BDC0463078001072
:10079000002210B504001000A15C0B00303B092BB7
:1007A00009D830380818531C032A03D000011A0056
:1007B000042BF1D110BD0B00413B052B01D837387C
:1007C000F0E70B00613B052B01D85738EAE7002022
:1007D000F0E70000F0B50B7885B0039017004D1CD2
:1007E000222B17D0116000202AE05C2A07D1019A41
:1007F0005278002AF7D0019A013301320192019A0E
:1008000001320192019A1278222A00D1A7E0002A2F
:10081000EBD1E8E701950023F4E72B785C2B11D0AE
:10082000237001350134019B9D42F6D30023039AC6
:1008300023700833D36013000198029A01301A61C3
:1008400005B0F0BD6B78662B63D014D82F2B61D028
:1008500007D8222B5ED0484B3D601B680298984712
:10086000C1E75C2B56D0622BF5D1082323700134ED
:10087000063BED18D7E7722B50D006D86E2BEAD185
:100880000A2323700134083BF3E7742B48D0752BFF
:10089000E1D1019B5B1B052BDDDDA81CFFF778FF79
:1008A000364B374AC31806009342D4D90028D2D019
:1008B000344B334AC318934234D8019AAB1DD31A30
:1008C000052BC8DDAB795C2BC5D1EB79752BC2D17B
:1008D00028000830FFF75CFF284B294AC3189342D1
:1008E000B9D8294BB6021E4080238005800D5B02DB
:1008F0000643F6180C23254A96421FD9244A9642ED
:10090000A9D83F203040802676420643E670042274
:1009100012E00C23237001340223AAE70D23F9E728
:100920000923F7E77F2804D91A4B98420ED90623EA
:10093000E1E7062301222070A4189AE73F20304007
:10094000802676420643A6700322F5E73F208023E7
:1009500006405B421E43667086330222ECE7019A32
:10096000501AC01A0C4B04301B6898470290041EA2
:1009700000D058E737E7C046C00002080024FFFF58
:10098000FF0300000028FFFF00FC0F00FFFF000036
:10099000FFFF1000FF070000C4000208002803D07A
:1009A0000378013B1F2B00D970470130F6E70000A8
:1009B000064B10B51B6828209847041E03D0282238
:1009C000002106F048FD200010BDC046C40002080A
:1009D0000849094A002803D1084B0B60084B07E07F
:1009E0000368002B00D1054B0B604368002BF5D04A
:1009F00013607047C4000208C0000208F9730010B9
:100A00000D740010F8B5802604007600002C00D18B
:100A1000F8BDE3682768334204D1A068002801D0FC
:100A2000FFF7F0FFE3680B4D334204D12069002843
:100A300001D02B6898478022E3689200134204D1CA
:100A4000206A002801D02B68984720002B6898471F
:100A50003C00DBE7C0000208F0B5040085B00F00E1
:100A60001600002901D1002013E004226F4938004C
:100A700006F0D4FD002803D10223E360381D08E00E
:100A800005226B49380006F0C9FD002803D1E0605B
:100A9000781D05B0F0BD04226649380006F0BEFDA1
:100AA000002806D101230122E3600023A261E36153
:100AB000E4E73B78222B05D1320039002000FFF714
:100AC00089FEE6E72D2B03D01A00303A092A24D8F4
:100AD00000250A2203A93800039506F05DFE0300F5
:100AE00003988742BFD05A1C0AD1534A914211D170
:100AF0000122514B5242A261E3610423E360C8E743
:100B0000002B07D180221206914203D180230022BC
:100B10001B06F0E7A361E161EFE75B2B35D1781CA1
:100B2000FFF73CFF037805005D2B26D00023013D35
:100B300001930093FFF73CFF009B071E6FD0002B33
:100B400019D0019B18604360681CFFF727FF320033
:100B500001003800FFF780FFFFF720FF051E06D0D9
:100B6000037801972C2BE5D05D2B08D030600098DE
:100B7000FFF748FF77E70090E6E700230093102394
:100B8000E360009B681CA36083E77B2B4BD1781C40
:100B9000FFF704FF037807007D2B38D00023013FC7
:100BA00001930093FFF704FF009B051E37D0002B35
:100BB00017D0019B18604360781CFFF7EFFE3200EE
:100BC00001002800FFF706FEFFF7E8FE0028CED060
:100BD0002B692B6200232B6103783A2B03D0306002
:100BE000C5E70090E8E70130FFF7D8FE32000100CA
:100BF0002800FFF731FFFFF7D1FE071EB7D00378BB
:100C000001952C2BCED07D2B03D03060AFE7002395
:100C100000932023E360009B781CA36039E7002B3E
:100C200000D120E7A3E737601DE7C0466F780010CA
:100C3000747800107A780010FFFFFF7FF7B5050089
:100C40000E0001920F1E00D1144FFFF7B1FE0023DA
:100C500004003B6098420DD02800FFF79FFE3A0049
:100C600001002000FFF7F8FE051E05D12000FFF768
:100C7000C9FE00242000FEBD019B002B0AD0FFF717
:100C80008DFE03780500002B04D02000FFF7BAFE8C
:100C90003D60EEE7002EEDD03560EBE794060208EC
:100CA000002210B51100FFF7C9FF10BDF0B58DB0DF
:100CB0001D0012AB40CB02921B780F000393002360
:100CC00006AA05A90593069300F021F9041E3FD159
:100CD000224B3A0000930699029B0598FFF76EFCA1
:100CE000002838DD022008AA07A9FF3007940894DD
:100CF00000F0CAFE002802D06524644228E02900E2
:100D0000079800F0E7FC0028F6D1033008AA07A9ED
:100D1000FF3000F0B9FE0028EED13100079800F056
:100D200077FC041E14D109A9380000F008F9041E4C
:100D30000ED131000A9800F0C7FB041E08D1039AB7
:100D400029000B9800F01AF904000998FFF75AFEE1
:100D500020000DB0F0BD1424CFE7C046005F2D0089
:100D6000F0B51F00002387B00291039204A905AAE1
:100D700006000493059300F0CAF8041E1ED10598DE
:100D800000F068F8040006F037FB051E1CD0104B7D
:100D900002000093059923000498FFF70FFC002838
:100DA0000FDD039B220000930197029B2900300076
:100DB000FFF77CFF0400280006F028FB200007B0A6
:100DC000F0BD14246442F6E764246442F6E7C046AA
:100DD000005F2D0010B5010004000B4806F00CFC6C
:100DE000002398420DD02100084806F005FC01239D
:100DF000002806D02100064806F0FEFB434243418E
:100E00005B00180010BDC0466E79001077790010A5
:100E10007F79001010B5010004000B4806F0ECFBD0
:100E2000002398420DD02100084806F0E5FB01237D
:100E3000002806D02100064806F0DEFB434243416D
:100E40005B00180010BDC046547900105D79001099
:100E50006979001003235843800898430430704791
:100E6000F8B5C3680D000860202B19D184680E4FB7
:100E7000002C01D12000F8BD266A002E06D03100DA
:100E80000A4806F0B9FB002802D16C602468EFE73D
:100E90003100380006F0B0FB0028F7D1AC60F5E770
:100EA00002204042E7E7C0468D79001087790010A4
:100EB000F0B507000D00002491B001AE002D02D165
:100EC000280011B0F0BD296A002904D0380006F0CE
:100ED00093FB0028F4D0AB68002B06D00E2C12D860
:100EE000A200955101341D00E8E72B68002BFAD1D0
:100EF000002C0AD0013CA3009B591B68002BF2D1A7
:100F0000002CF7D1EFE70025DAE72500D8E7F8B5A0
:100F10000E002E21170006F061FB041E0CD0451CAC
:100F20002E21280006F05AFB002805D0001B0138AE
:100F3000386000203560F8BD16204042FBE770B5F0
:100F4000050000200C00FFF743FD2800FFF7A8FE76
:100F5000002803D02100FFF783FF70BD0520404229
:100F6000FBE7002304220133002901D1904203D979
:100F700052001D2BF7D1023318007047F0B589B02D
:100F800005900C000100C6480792FFF791FF00286A
:100F900000D11FE283680193029300231F00069390
:100FA0000493029B002B42D1019BDB680293202B10
:100FB00000D010E2019D2900BA48FFF779FF061E14
:100FC00000D198E0037E079A9A4200D093E0010096
:100FD000B548FFF76DFF002800D189E083692370D1
:100FE0003100B248FFF764FF1423002800D0836962
:100FF0006360002F00D0EEE1019E3100A948FFF7A9
:1010000057FF00287CD02278037E9A4278D13100A5
:10101000A748FFF74DFF002800D1FCE02823826994
:10102000551E6B43E3181A74022302936FE0029972
:10103000A048FFF73DFF002802D08668002E03D1AC
:10104000029B1B680293ACE731009B48FFF730FF1F
:1010500000284BD0036999491800039306F0CCFA95
:10106000002843D09649039806F0C6FA00283DD0E0
:101070000025944AAB009958039806F0BDFA071E64
:1010800005D00135172DF4D10527183D7F423100D9
:101090008D48FFF70DFF002801D0836906933100CA
:1010A0008A48FFF705FF002804D0C1698069FFF76F
:1010B00058FF04906B1C19D0049B002B16DDAD2348
:1010C0006A00A2185B00D35C012B05D12B000F3303
:1010D000DB000699E31859605C23FF33D35C012BD6
:1010E00004D10F35ED00049B6519AB603668A5E7A8
:1010F00001277F4274E72D68002D00D05BE778E779
:101100003668002E00D078E7012335000293002EC8
:1011100000D084E031006E48FFF7CAFE002800D0FE
:101120000FE131006B48FFF7C3FE00280ED00D23FE
:101130006B43E3183633FF331B78012B06D1C268AB
:101140002733511E8A416B43E3185A7031006248BD
:10115000FFF7AEFE00280ED00D236B43E3183833A3
:10116000FF331B78012B06D1C2682733511E8A41F9
:101170006B43E3181A7231005848FFF799FE0028B4
:101180000CD00D236B43E3183833FF331B78012B4E
:1011900004D127336B438269E3185A7231005048F7
:1011A000FFF786FE00280FD00D236B43E318413371
:1011B000FF331B78012B07D1C2682733511E8A41A8
:1011C0006B43E3180833DA7731004648FFF770FEC7
:1011D000002800D1C5E0C368102B00D0C1E08268B0
:1011E0000D211B2000236943684361180390002AE6
:1011F00000D1B6E01F003E37FF37CF5D012F04D18D
:1012000003981F1890692437C8550133032B00D168
:10121000A7E01268EBE701230500029377E73100AE
:101220002448FFF745FE002800D173E78768002FA8
:1012300000D16FE739002048FFF73AFE00282DD093
:1012400003691E491800039306F0D6F900284BD114
:1012500039001D48FFF72CFE00280CD00D236B43EE
:10126000E3183A33FF331B78012B04D127336B4348
:101270008269E3185A6139001448FFF719FE002803
:101280000CD00D236B43E3183B33FF331B78012B4A
:1012900004D127336B438269E3189A613F68C6E73C
:1012A00054790010F5780010A3780010AA78001087
:1012B000B27800107F7800109A79001089780010B9
:1012C0008E780010C8000208967800109E780010F2
:1012D000BE78001092790010C8780010D078001005
:1012E000DF780010E67800106B49039806F084F967
:1012F0000028D3D139006948FFF7DAFD00280CD067
:101300000D236B43E3183C33FF331B78012B04D1CF
:1013100027336B438269E318DA6139006048FFF7CD
:10132000C7FD0028BAD00D236B43E3183C33FF33CD
:101330001B78012BB2D127336B438269E3181A6201
:10134000ACE70D236B43E3183933FF331B78012BD4
:1013500000D0E6E627336B438269E318D2B2DA6045
:10136000DFE631004F48FFF7A3FD28236B43E31866
:10137000002829D082699A70002D08D131004A488E
:10138000FFF796FD1423002800D08369E362029BD7
:10139000022B1FD1019E31004448FFF789FD002830
:1013A00014D08269D3B2022B10D12827551E6F4367
:1013B000E219137431003E48FFF77AFD002801D08E
:1013C00083693B55012330E69870D5E73668002ED7
:1013D000E1D1F7E7002705993648FFF769FD0028B6
:1013E0002ED0002F2CD13D008668002E28D0310051
:1013F0002B48FFF75DFD00280BD063191A0050320F
:10140000FF321278012A04D102326A439B188269A2
:101410005A6531002848FFF74BFD00280BD06319AF
:101420001A004F32FF321278012A04D102326A4385
:101430009B1882691A6502350A2D01D03668D4E7F7
:1014400005991E48FFF734FD051E22D0002F20D13C
:1014500001001B48FFF72CFD00280AD05A23FF3358
:10146000E35C012B05D1C3685A1E934122007932F7
:10147000137029001348FFF71BFD002809D0AC2387
:101480005B00E35C012B04D1C36878345A1E93419E
:101490002370380009B0F0BD8E78001096780010E7
:1014A0009E780010F0780010AA780010B278001032
:1014B000F5780010F8780010027900100879001013
:1014C000147900102079001070B50C000100164846
:1014D000FFF7EEFC051E24D001001448FFF7E8FCDE
:1014E000002806D0E378012B03D10069FFF772FCD6
:1014F000207029000E48FFF7DBFC002806D0237976
:10150000012B03D10069FFF785FC607029000948B1
:10151000FFF7CEFC002804D06379012B01D1836949
:10152000A370002070BDC0463279001035790010DC
:10153000407900104879001070B504000D0086B0A5
:101540000021142201A805F086FF29002000FFF7E2
:10155000AFFC0400002C18D021001C48FFF7A8FCA9
:101560000028F7D00569002D0AD0194E2900300057
:1015700006F042F800280BD1310001A806F046F829
:10158000210001A8FFF794FC0400200006B070BD04
:10159000104E2900300006F02FF80028ECD029006A
:1015A0000D4806F029F80028E6D00C4E290030003E
:1015B00006F022F80028DFD02900094806F01CF8C0
:1015C0000028DDD121000748C1E7C0469A79001004
:1015D000C2790010AB790010B2790010BA7900100E
:1015E0009F790010A579001010B5FFF761FC012468
:1015F000002809D08168002906D00448FFF758FC6C
:10160000002801D0C468E4B2200010BD4C7900105D
:10161000F7B5040000200D00FFF7DAF92000FFF70E
:101620003FFB071E4AD001002648FFF741FC041E7D
:1016300006D1012676423800FFF7E4F93000FEBDFE
:1016400001002148FFF778FF210006001E48FFF740
:10165000CBFF0090002E2BD03069FFF7BBFB6B4611
:1016600000261B782870EB7021001848FFF764FFF4
:10167000210000901548FFF7B7FF009B0190002B59
:1016800019D01869FFF7C6FB6B461B7968702B7180
:1016900021000F48FFF750FF210000900C48FFF792
:1016A000A3FF009B002BC4D09B696871AB70C2E79D
:1016B00001267642D8E701267642E9E705267642FA
:1016C000BCE7C0463279001035790010407900102F
:1016D00048790010F0B5050085B000200C00FFF738
:1016E00077F92800FFF7DCFA0190002800D1A8E183
:1016F0000100D648FFF7DCFB051E00D161E1D44FA5
:1017000001003800FFF718FF290006003800FFF736
:101710006BFF002E00D134E19A22B3695200DBB294
:101720002370A0542200283213704223FF33E05468
:101730000023C84F290038000093FFF7FDFE290061
:1017400006003800FFF750FF002E00D11CE1F368BF
:101750005A1E93413622DBB2FF326370A05422003E
:1017600029321370A1235B00E054BB4F29003800DD
:10177000FFF7E2FE290006003800FFF735FF002ED4
:1017800000D105E1F3685A1E93413822DBB2FF32E3
:101790002372A054220030321370A2235B00E05465
:1017A000AE4F29003800FFF7C7FE290006003800B9
:1017B000FFF71AFF002E00D1EEE09C22B369520021
:1017C000DBB2E360A05463634623FF33E054A44FCD
:1017D00029003800FFF7B0FE290006003800FFF7A7
:1017E00003FF002E00D1DBE0B369621DDBB2D377CB
:1017F0003E22FF32A05422004C321370A522520028
:10180000A054A21DD3779F225200A05422004D3233
:1018100013704C22FF32A054E21DD3774022FF32D6
:10182000A05422004E321370A6235B00E0548D4E6C
:1018300029003000FFF780FE290007003000FFF785
:10184000D3FE002F00D1AFE0FB685A1E9341220067
:10185000DBB20832D377A0225200A05422004F32CC
:1018600013704E23FF33E05401997F48FFF720FBAC
:101870000600002F00D1A4E03A220123FF32A35436
:10188000D218A3543C22FF32A354D218A3540223EB
:10189000764FFF330A32A35202320100A3523800BE
:1018A000FFF74AFE310005003800FFF79DFE039068
:1018B000002D00D17CE0AB6902936D4F3100380000
:1018C000FFF73AFE310005003800FFF78DFE002DCE
:1018D00000D172E0AD692200210023005B32353176
:1018E0007C33FF32FF31029E5D601E606E46367BA8
:1018F00008331670507002328B42F4D101995D4862
:10190000FFF7D6FA061E69D05B4F01003800FFF7DB
:1019100013FE310005003800FFF766FE0390002D2E
:1019200053D0AB690293524F31003800FFF704FEE9
:10193000310005003800FFF757FE002D4AD0AD6991
:101940002200230021004F325033FF327831029EB3
:101950005D601E606E46367B083350701670023232
:101960009942F4D101994548FFF7A2FA051E39D1F1
:1019700001235B4200930198FFF744F8009805B0FB
:10198000F0BD01235B42D4E601235B420093ECE609
:1019900001235B42009303E701235B42009316E7B8
:1019A00001235B42009342E701235B4200935BE724
:1019B00001235B42029500937FE701235B42009382
:1019C00089E701235B42009398E701235B4202957C
:1019D0000093A8E701235B420093B1E701235B4238
:1019E0000093BFE7264F01003800FFF7A5FD29004F
:1019F00006003800FFF7F8FD002E1ED0F3685A1ECF
:101A00009341220078321370AC235B00E0541D4FE9
:101A100029003800FFF790FD290006003800FFF785
:101A2000E3FD002EA4D0F3685A1E934122007932C0
:101A300013705A23FF33E0549DE701235B42009368
:101A4000E5E705235B42009398E7C0465479001010
:101A5000F578001092790010C8780010BE78001058
:101A6000E6780010DF7800107F780010967800107C
:101A70009E780010F87800100279001008790010A4
:101A80002079001014790010DC23F0B59B0585B097
:101A90000093002302AD019502901848184C066887
:101AA0006B60306A0768002F07DBA34203D1012077
:101AB000404205B0F0BD0133F4E7A342F7D06B46D6
:101AC000C3600123B03683603368C0180023066802
:101AD000002E03DAA342EAD00133F8E7A342E6D0AE
:101AE000A02300981B06984201D00098E1E7029BD2
:101AF000002013606B680B60DBE7C046A409020896
:101B0000983A00000122F0B50024184B06681968C5
:101B100032400B6AB0310D6815495D191F68002FFE
:101B200006DB8C4202D101204042F0BD0134F5E7D2
:101B30008C42F8D0002A00D106000120DE609860B7
:101B400000202C68002C03DA8842ECD00130F8E742
:101B50008842E8D0DB68002A00D11B68A022002060
:101B600012069342E1D01800DFE7C046A40902083C
:101B7000983A00000A4B37B51B780500013B00245A
:101B8000012B05D8074B01A80193FFF7BBFF040009
:101B9000002D02D0280004F01FFB20003EBDC046EF
:101BA000300C02080101013A07B5034B01A801936B
:101BB000FFF7A8FF0EBDC0460101003210B5FFF7C8
:101BC000F3FF002801D105F023FE10BD70B504001D
:101BD0001000FFF7CFFF174B1B68002B22DAB02352
:101BE000154A16499B00D1501549164E0968080040
:101BF00090300D680068281805682E40124D354356
:101C0000056008001E001500102388300968006870
:101C100009180A681A42FCD0012004F0DDFAAC5120
:101C2000FFF7CCFF200005F0E3F9002004F0F4FFFB
:101C3000FBE7C0460001264000002140004000169E
:101C4000A4090208FCFF00000300FA05F8B5802390
:101C5000FA270E0001251B0218430C4C0004E0611A
:101C6000BF00236C2B4208D1002F01D108480CE0A3
:101C70002800013F04F0CAFAF3E7002FF6D0002055
:101C8000236C1D432564E36A3380F8BD00003C40AB
:101C90000400160070B5FA26012500040B4C014320
:101CA000E161B600236C2B4208D1002E01D1084817
:101CB0000AE02800013E04F0A9FAF3E7002EF6D06E
:101CC0000020236C1D43256470BDC04600003C40CD
:101CD0000400160010230449044A885803438B501B
:101CE0000022034B1A60704700003C4070F0010076
:101CF00014080208F0B51B4B9DB001A90A0018009A
:101D000070C870C270C870C270C870C20AAC1A00C5
:101D100020002432E0CAE0C0E0CAE0C0E0CAE0C06F
:101D200013AD2A004833C1CBC1C2C1CBC1C2C1CBA4
:101D3000C1C20D4E336898690130FF3000F01EFBC0
:101D40003368210098698130FF3000F017FB336859
:101D50002900986980239B00C01800F00FFB1DB07C
:101D6000F0BDC046007B0010A4090208F0B589B0A0
:101D700002930EAB1B780390009104920593012807
:101D800000D949E1032900D946E1029B0C3B872B8E
:101D900000D941E1FB2A00D93EE1A24C63689B03D4
:101DA00001D504F02FFD01229F4BA0491E00585879
:101DB0000191104204D09E495B58134200D02DE19E
:101DC000FFF798FF9B4B9C4AF250A023029A1B03FB
:101DD00013439A4AB3509A4B9A4AF2509A4B5A6814
:101DE00001231A4200D01BE1984AB0580822104043
:101DF0004BD018003268964B4003184380250243AD
:101E000032606369ED052B425BD0059B002B58D1F6
:101E10000121032004F080FC8E4B62691B68433370
:101E20001B78002B04D02A4202D0A3691D43A56170
:101E3000019B019AF758884B40203B43B35004F074
:101E4000E5F90123854C32591A4208D1335140201B
:101E500004F0DCF903234020335104F0D7F9FA25CC
:101E60007F4B804C1F40019B3C43F450ED00794B6D
:101E70001B689A697C4BD358102213422CD1002D39
:101E800025D17A4C200009B0F0BD04F003F9714B64
:101E90001B681A1DD26F1B689B181968090E013147
:101EA0004B08181805F0E2F87149884202D83268E8
:101EB0007048A3E705F0DAF8013832680028F7D057
:101EC00099E703236C4AB1580B43B350B0E70120A4
:101ED000013D04F09BF9CAE7002DD2D00823674AE0
:101EE0000120B1580B43B35004F0DCFB002802D0B2
:101EF000059B012B01D1624C3C43624B019A23406C
:101F00000124614D2343B350494BF358234200D081
:101F1000CEE0002DB5D02000013D04F077F9F3E7C5
:101F2000013D002800D0DAE006ABDB88BB4200D0E0
:101F3000C4E006AB991D5548FFF788FE041E00D08B
:101F4000CDE006ABDA888023DB001A421BD10A25DC
:101F5000019380214D48C900FFF79CFE041E00D06C
:101F600020E106AB9F1D39004848FFF76FFE0400D3
:101F7000002D00D1B2E0013D002800D0AFE03B8849
:101F8000019A9342E5D106AB991D4148FFF75EFEE9
:101F9000041E00D0A3E006ABDB883F22190091436A
:101FA0006A4612880398019206AA0632012824D1B3
:101FB000009B02252700012B03D8019BED1AAFB22D
:101FC0001D0070230B431380324B009A3048D340DE
:101FD000314ABF00136006ABD9882943D980FFF787
:101FE00059FE019B04005D1B03231D402F43BFB21C
:101FF00006ABDF80294BF75071E00099002908D02B
:10200000270001257F218B436F390B431380244B1D
:10201000DBE70127009DF5E7224C33E7224C31E74F
:10202000224C2FE70000264000003C40A0F00100B9
:10203000B4F00100A4F0010006000001A8F00100C6
:10204000ACF0010001000100FC003C4070F0010018
:10205000041A0080A409020830000300B0F0010057
:10206000EFFFFEFF200002001040000004001600F9
:1020700000093D00040A0080C4F0010068F001007E
:1020800028000200FFFFFBFFF07E0E00031E000091
:10209000091E00000048E8011408020864F001006D
:1020A0000024F400010016000300160002001600D0
:1020B000002D00D1E5E6C0270A257F01C0213B485D
:1020C0004901FFF7E7FD041E6CD106AB991D3748A7
:1020D000FFF7BCFD0400002D00D021E7344CB025F3
:1020E0006D056B78002B45D06B78212B42D0314F9A
:1020F000EB5B002B3ED0002C00D0C3E606AB9E1D50
:1021000031002D48FFF7A2FD041E00D0BAE6E95BBE
:10211000308860344908A043214001432748EA5BE6
:102120000140F020D201C00002401143244AEB5B81
:102130001140C022DB005201134019431E48318078
:10214000FFF7A8FD041E00D09CE631001D48FFF7F4
:102150007DFD041E00D095E6FF23C022E95B1948EF
:102160000909890119403388934319433180FFF7E6
:1021700091FD0400002C00D084E6049B12495B0012
:10218000194389B21148FFF785FD041E04D1104997
:102190001048FFF77FFD0400029B580180B204F055
:1021A00035F86FE6002D99D099E7C046021E000071
:1021B0000400160016180000071E00007FF5FFFF40
:1021C000FFE7FFFF061E000001100000081E0000D0
:1021D000376800000F1E0000014B18607047C046B2
:1021E000A4090208044B1B681A00AC3212881B6A4F
:1021F0005043C0187047C046A40902081D4B9842BE
:102200000FD010D840282FD005D8002830D0102863
:1022100028D019481EE0802828D080235B009842EF
:10222000F7D1144816E0154B984214D008D8A023D3
:102230001B0698421CD0124B9842EAD1A0200BE01A
:10224000104B98420AD0104B984209D00F4B98423D
:10225000DFD10F487047A420C003FBE70D48F9E722
:102260000D48F7E70D48F5E70D48F3E70D48F1E7AE
:102270000020EFE706005200FF005200010000F0CE
:10228000090000A0040000F0050000F0030000F0C9
:1022900001005200020052000300520001005000F1
:1022A000020050000500520010B50020FFF79AFF11
:1022B0000A4B1C682300B0331B68C0180368002B4E
:1022C0000ADB074B1868FFF799FF012263689A60E1
:1022D0009A68002AFCD110BD0248FCE7A409020854
:1022E00098060208020050000D4B10B51860002837
:1022F00004D0FE235B42038000234380094B1B680C
:102300001A004C321278002A08D04D331B78002B6B
:1023100004D002220449002000F05EF910BDC0463E
:10232000A8060208A40902082903020810B50248F9
:10233000FFF7DAFF10BDC046000000080E4B10B5D5
:102340001B689C695B69001BC0090001C0181F2342
:102350001A40032907D8C9008B408A4004689C436F
:102360002243026010BD0439C9008B408A40446892
:102370009C4322434260F5E7A409020830B50028D7
:1023800030D000292ED0184BCD681A689369546953
:10239000C31ADB091B011B190C6804601400793493
:1023A00024782418256014007A3424780D692418C0
:1023B000256014007B3424784D69241825601400AE
:1023C000783424788D68241825604C687C328461C8
:1023D000127810188A6902600020CA691A600A6AB5
:1023E0005A6030BD0148FCE7A409020801005A0008
:1023F000F7B5012637008F4033408B400568140045
:10240000BD430F272B4303600A4B08AA12781B68B1
:10241000019279331D788E0045192B683C401A00D3
:102420003B00B340B4409A4314432C60019AFFF739
:1024300085FFF7BDA4090208064B1B68B0331B6873
:10244000C3181B68002B03DA89B241600020704773
:102450000148FCE7A409020801008A000368002B78
:1024600004DA89B2C2608160002070470048FCE74E
:1024700001008A00064B1B68B0331B68C3181B6839
:10248000002B03DAC36800200B6070470148FCE7AB
:10249000A409020801008A00024B1A68002A00D130
:1024A00018607047AC060208F0B52C246043154C48
:1024B0001F0024681D0A2018FF2425402740124CC5
:1024C0001B0C26680760346A45608360AC3636882A
:1024D00077433F1907612F0080376D017F01E719AE
:1024E00064190A4D47611F043B43641923600023AC
:1024F0008361059BC2610162002B01D01B8883812F
:10250000F0BDC046AC060208A4090208081000008D
:10251000F0B5836885B002AD2B80154B02681B684F
:10252000066A9B8E476A9B18AB7043680095826A67
:10253000C16A040003930369C068FFF7B5FF002177
:102540003B000A0000913000FFF7AEFF216B28002E
:1025500003F0F8FD0022AB5E002B06DB1F221340C8
:102560001E3A9A401300034A136005B0F0BDC046FE
:10257000A409020800E100E0F7B52C25134C6843DC
:10258000266869433418256901937118002D19D004
:102590008869002818D12E68002E15DA6768012492
:1025A00026004B689E40B44613689EB263461B04E7
:1025B0001E431660EA608C61BC40019BA4B24B6272
:1025C000AC60FEBD0248FCE70248FAE7AC06020830
:1025D00004028A0007028A002C234343064800684D
:1025E000C018C369934204D9036A00209200D150F5
:1025F00070470248FCE7C046AC0602080A028A009F
:1026000073B5002642690400D56801962B0CB342CD
:1026100021D01B0413601368194B00691B68B03389
:102620001B68C3181B68B34215DA01A9FFF722FF24
:10263000B0420CD10198E26903681E0CDBB29A42E9
:1026400005D9226A9B009B58002B00D09847310087
:102650002069FFF7F1FEADB2002D09D063691D605E
:1026600000251B68636AAB4205D098476562A56187
:1026700063691B6873BDA36A002BF8D09847F6E71F
:10268000A40902082C2310B54343034A1068C0185C
:10269000FFF7B6FF10BDC046AC060208F8B5194BEF
:1026A0000F001B681A002E321278824227D90029A7
:1026B00025D01F250A68154021D11900AC310C889E
:1026C000114E60431C6AD2080419290078683460EE
:1026D00004F0C1FE29002000FFF7AEFE3A002900F9
:1026E0003068FFF7BBFE041E07D101003068FFF71A
:1026F000A3FE03002000002B00D00448F8BD0448CE
:10270000FCE7C046A4090208B006020801018A00DD
:1027100003018A0010B5002A0DD1002914D10B4BFA
:102720001A681300AC331B885843136AC018084B4F
:102730001860080010BD002906D0064B196019006A
:102740005A60FFF7ABFFF5E70348F3E7A409020877
:10275000B00602080400000803018A00F7B5184F0C
:1027600004003B680191DE683368834226D9002566
:10277000A94202D1FDF7D1FE050038680368002B9D
:102780001ADA1F2201232240934064097268A400D0
:102790001419226813420DD09A43226000240021AC
:1027A000FFF74AFE019B002B02D12800FDF7B9FE7E
:1027B0002000FEBD034CF2E7034CF3E7034CF7E7C0
:1027C000B0060208020188000301880004018A00A3
:1027D0000A4B1B68DB681A6882420DD959681F23AF
:1027E000420918401E3B8340920050581840431E37
:1027F0009841034BC01870470248FCE7B006020836
:102800000001880004018A0070B50F4B1B683B3340
:102810001A78431E591E8B419A4213D90B4B0C4D0B
:102820008000C41863590B4A01201A4080239B057D
:102830001343635103F0EAFC002063595B005B081B
:10284000635170BD0448FCE7A4090208000026405B
:10285000FC050000FFFFFFCF01004A00F7B59621FD
:10286000002003F017FD4D4E4D4C33681A003C32EA
:102870001278002A00D18AE00027E02130203D00B4
:1028800089006258824362501A001900083201C957
:10289000D26F01918218106842498C460840019914
:1028A00010601A68C96F501880210268490412022A
:1028B000120A0A4361460260019A1B68D26F9B1894
:1028C0001A680A401A6004F0D7FA33683B331B7861
:1028D000002B03D00120FFF797FF0700002F00D047
:1028E000314D33683B331B78012B03D90220FFF7AE
:1028F0008BFF0700002F00D02C4D0021012002F09B
:102900005BFF002800D02A4DE0270F23BF00E059CD
:10291000184012D102F078FF1223FF3398420CD1F5
:1029200033683C331B78002B34D00F23E2599A4391
:102930000E3B1343E35104F09FFAB121C9006358E1
:102940001C4A1A4080239B051343B0226350002188
:10295000D200A35808005B005B08A350164AA35896
:102960005B005B08A35002F027FF002800D0134D46
:1029700033683C331B78002B0ED0E0220F219200ED
:10298000A3588B43A350FFF7A5F92800FEBD0C4FB9
:102990000C4D79E70B4DCEE70A4DF4E7A409020888
:1029A00000002640FF00FFFF2F0F1A012E0F1A0113
:1029B0004E0F1A01FFFFFFCF8C0500004F0F1A01C9
:1029C00001004A000F0F1A01BE4BF0B51B6889B019
:1029D0001A00AC321188186A8A001218D068049064
:1029E0000088079004984088029004988768C0681F
:1029F000069007980138072809D804F02DFB6200DB
:102A00002600450012097E00C6009D027100AE4CF2
:102A10006A46049B928B85211A806A46802012891F
:102A20005C605A80069A9F60DA60A64B49011B6879
:102A300040031A6AAC3350501888515880008018EF
:102A40000021FFF7F9FC09B0F0BD029A9F4BD200BC
:102A500099184968069C0C4001D001F0E5F8481C23
:102A600001D101F0E4F802981F2801D901F0E2F841
:102A7000D258002A01D101F0E0F8136839430B4025
:102A800006990B431360C3E73C00029A8F4BD200B8
:102A9000991849680C4001D001F0D2F8481C01D1C6
:102AA00001F0D1F802981F2801D901F0CFF8D258CF
:102AB000002A01D101F0CDF813680B403B431360AD
:102AC000A6E7029B1F2B01D901F0C6F8DA007F4B65
:102AD000D358002B01D101F0C2F81F68002497E7FA
:102AE000022F01D001F0BEF8069C63425C41784B96
:102AF00064421C40774BE4188AE7002F01D101F0B3
:102B0000B4F8754CF0223900200004F09BFC03F06F
:102B100099FB002810D0FFF7A1FE6F4801F054FC8C
:102B20006E4B04001A78002A00D071E7002800D00C
:102B30006EE701321A706BE7684B1B78002BECD103
:102B4000E378002BE7D0E379002BE4D055342478E8
:102B500003F066FB0028DED1614B624A99580029D8
:102B600008DAC02149005958C907D4D499584900F6
:102B7000490899508021985809060143012099502D
:102B8000995881430C439C50C5E70298662854D05D
:102B900025D8302800D18CE116D82D2800D1D6E0D8
:102BA0002F2800D180E12C2817D10024B1264E4BCC
:102BB000F6001C804D4B1C80424B1B683B331B783E
:102BC0009C4258D9002423E7029B322B00D164E1B8
:102BD00000D25EE1332B00D157E13B4C18E702985D
:102BE0006E2800D13CE115D86C2800D129E100D92C
:102BF0002BE16728F1D103234B439B181A68002A65
:102C0000FCDA80220024D96852050A43DA605C604D
:102C10005B68FDE6029BC82B00D155E1C92B00D1B2
:102C20006FE16F2BD9D13878072801D901F020F84E
:102C3000797803F071FD0024EAE6294B5A68002FE9
:102C400010D12B4911401B220A435A605968294A66
:102C50001143596059681143596059680A435A60D1
:102C60000024D5E6E8212448890102401143596037
:102C70005A680240F3E71A4D002C1ED1B023DB0046
:102C8000EB58DB0F17D0200002F0BEFD022854D114
:102C9000002C35D18020AB59184A800513401843C9
:102CA000A8510021200002F087FD0123A3400E4A15
:102CB00011880B43138001347EE723008033FF33F8
:102CC0009B00DDE7A4090208FF0F1A01A80902080A
:102CD00007F0E5FEF90F1A01B8060208A807020876
:102CE000000026400C050000B4060208B6060208E3
:102CF0000000FC0F003A0280FF00FC0FFFFFFFCF37
:102D00000325824AA30082499B185A58120F2A426F
:102D100004D05A58120F2A40012A06D10122A2409B
:102D200010007C4D2A88104328805A587A48024067
:102D30008020800510435850B3E7002CBBD1AB591D
:102D4000754A1A4080239B051343AB51B3E7734B7D
:102D50006E4E1C88002C13D1B023DB00F358002BDF
:102D600000DB55E6B2226E4BD200012155E0013D59
:102D7000B3580B40032B08D1002D49D1694C47E6CD
:102D8000A622674DD2000321F2E7B358002DEED101
:102D9000644C3DE60123039A93409BB205935F4B3D
:102DA000059A1B88134210D00221039802F004FDFB
:102DB000039B002B14D1B223DB000121F2580A42FD
:102DC00001D000F08BFF002D1AD1039B0133039338
:102DD000554B039A1B683B331B789A42DAD917E6A6
:102DE000039A039B9032FF32013B92000120B158BD
:102DF000014201D000F080FF002DE6D0013DF5E753
:102E0000013DDAE7C022195892050A431A50DCE75F
:102E10000023444C0393DBE7013BB058084203D145
:102E2000002BF9D13F4CF3E5002B08D0B122C02391
:102E3000D200B1589B050B43B3500024E8E5394C50
:102E4000E6E503F04BFC0024E2E543331B78002B5E
:102E500004D02E4A93695B005B0893610024D7E598
:102E600043332A4A1B785169002B08D08023DB05A5
:102E7000194204D0002F04D091690B4393610024C0
:102E8000C6E5936929490B40F8E703F06DF8002483
:102E9000BEE503F0A3F80024BAE53A8938887968DA
:102EA00002F020FF0400B3E5380003F029F8040025
:102EB000AEE516491E4AB8058B58800D9B0A9B0249
:102EC00003438B500024A3E51A4C7A6823002100A9
:102ED000DC331A60BB68E0310B602100250026005E
:102EE0003878E43108607978E83529603D7BEC3644
:102EF000356001260234E6770095FEF737FF0400BF
:102F000086E5FEF7E7FE002482E5C0460000264085
:102F1000FC050000B6060208FFFFFFCFB40602085A
:102F200040420F00FA0F1A01A4090208FFFFFFBF79
:102F30003C050000B8060208B04A1278002A01D108
:102F400000F099FE02980838632801D900F096FE37
:102F500004F082F8D100DD00EF000E011A01260115
:102F60003701450194065801660174018C01CC01BA
:102F70000C02B402570370038903A203B603CA0309
:102F8000D803E603FA030E041C042A044304520483
:102F900060046E059705C105F20547069406940680
:102FA0006006940694069406940694069406940685
:102FB0009406940694069406940694069406940641
:102FC0009406940694069406940694069406940631
:102FD0009406940694069406940694069406940621
:102FE0009406940694069406940694069406940611
:102FF0009406940694069406940694069406940601
:1030000094069406940694069406940694069406F0
:103010009406940664008400A400BA000122784D4E
:103020006B78E91C03932B792E780593FBB22A70F9
:103030006A70CB77002B0ED12A71280001F0C4F9F9
:10304000041E00D1E4E46B461B7B2E706B706B4654
:103050001B7D2B71DCE400232B71EEE701210022A4
:10306000674D6B78281D03932B792E780593FBB25F
:1030700029706A70C377022B0ED12971280001F0E4
:10308000A3F9041E00D1C3E46B461B7B2E706B704A
:103090006B461B7D2B71BBE42A71EFE7584D2B78F3
:1030A0006E1D0393F37F2800059301232B70F377A4
:1030B00001F08AF9041E00D1AAE46B461B7B2B7039
:1030C0006B461B7DF377A3E44D4D2B786E1D039368
:1030D000F37F2800059301232B700023F37701F081
:1030E00073F9041E00D193E46B461B7B2B706B4677
:1030F0001B7DF3778CE40023414D28006E796B71C2
:1031000001F062F9041E00D182E46E7180E43C4D4E
:103110006B7A280003930023AE6E6B72AB6601F0EE
:1031200053F9041E00D173E46B461B7BAE666B72D1
:103130006EE4002F01D100F0A4FD3B331B78BB42AD
:1031400001D200F0A1FD00232D4D012F0BD1AE7A4D
:10315000AB72280001F038F9041E00D158E4012FA9
:1031600004D1AE7254E4EE7AEB72F2E7EE724FE401
:103170000123234D2800EE79EB7101F025F9041E9F
:1031800000D145E4EE7143E400231D4D2800EE79A3
:10319000EB7101F019F9041E00D139E4EE7137E446
:1031A0003B0017485A1E9341050055352E782B7069
:1031B00001F00AF9041E01D1FFF72AFC2E70FFF777
:1031C00027FC01230E48451CEE7FEB7701F0FCF84D
:1031D000041E01D1FFF71CFCEE77FFF719FC00235A
:1031E0000748451CEE7FEB7701F0EEF8041E01D195
:1031F000FFF70EFCEE77FFF70BFCC046A8070208AE
:10320000B80602080123C94D28002E7A2B7201F05E
:10321000DBF8041E01D1FFF7FBFB2E72FFF7F8FB72
:103220000023C24D28002E7A2B7201F0CDF8041E27
:1032300001D1FFF7EDFB2E72FFF7EAFBBB48FBB2B3
:103240000500013B5A425341002456352E782B701D
:10325000037AA34201D1FFF7DBFB01F0B5F8041EAE
:1032600001D1FFF7D5FB2E70FFF7D2FB052F01D957
:1032700000F00DFD3800AD4D012303F0E3FE031611
:10328000191C1F226E7D6B75280001F09DF8041E2D
:1032900001D1FFF7BDFB052F01D9FFF7B9FB3800BE
:1032A00003F0D0FE1215181B1E21AE7DAB75EBE7A7
:1032B000EE7DEB75E8E72E7E2B76E5E76E7E6B768E
:1032C000E2E7AE7EAB76DFE76E75FFF7A1FBAE758A
:1032D000FFF79EFBEE75FFF79BFB2E76FFF798FB43
:1032E0006E76FFF795FBAE76FFF792FB052F01D9BF
:1032F00000F0D0FC380000238C4D03F0A3FE031631
:10330000191C1F226E7D6B75280001F05DF8041EEC
:1033100001D1FFF77DFB052F01D9FFF779FB3800BD
:1033200003F090FE1215181B1E21AE7DAB75EBE766
:10333000EE7DEB75E8E72E7E2B76E5E76E7E6B760D
:10334000E2E7AE7EAB76DFE76E75FFF761FBAE7549
:10335000FFF75EFBEE75FFF75BFB2E76FFF758FB82
:103360006E76FFF755FBAE76FFF752FB38680528FF
:1033700001D900F092FC6D4C3B79220003F062FE13
:10338000032E3C4A58662600A532A83615781370DD
:10339000326818000392627DA634059202F0FEFBAB
:1033A00023786349D84003F061FE059B30601C1E02
:1033B00001D1FFF72DFB5D4E300001F005F8041E32
:1033C00001D1FFF725FB3868052801D9FFF720FB5D
:1033D000330003F037FE4950575E656C2600AC326F
:1033E000B03615781370326818000392A27DAD34A0
:1033F000059202F0D3FBD3E72600B432B836157835
:103400001370326818000392E27DB534059202F021
:10341000C5FBC5E72600BC32C0361578137032688C
:1034200018000392227EBD34059202F0B7FBB7E785
:103430002600C432C836157813703268180003921B
:10344000627EC534059202F0A9FBA9E72600CC32C2
:10345000D03615781370326818000392A27ECD34EE
:10346000059202F09BFB9BE7A5331D70039BA836DA
:103470003360FFF7CDFAAC331D70039BB036336079
:10348000FFF7C6FAB4331D70039BB8363360FFF7FD
:10349000BFFABC331D70039BC0363360FFF7B8FA28
:1034A000C4331D70039BC8363360FFF7B1FACC33C9
:1034B0001D70039BD0363360FFF7AAFA38680528E1
:1034C00001D900F0EDFB194B3A791C0003F0BAFD6D
:1034D00003323D48535E1D00A634217822700391CB
:1034E0005A7DA8352E680592A533187802F056FB50
:1034F00023780F49D84003F0B9FD059B28601C1EB6
:1035000001D1FFF785FA094D280000F05DFF041E88
:1035100001D1FFF77DFA3868052801D9FFF778FA5D
:103520002B0003F08FFD3E464E565E66B80602083D
:1035300040420F001D00AD342178227003919A7D26
:10354000B0352E680592AC33CFE71D00B534217835
:1035500022700391DA7DB8352E680592B433C4E742
:103560001D00BD342178227003911A7EC0352E686B
:103570000592BC33B9E71D00C53421782270039150
:103580005A7EC8352E680592C433AEE71D00CD348F
:103590002178227003919A7ED0352E680592CC3323
:1035A000A3E76A46127BA633A8351A702E60FFF790
:1035B0002FFA6A46127BAD33B0351A702E60FFF7D2
:1035C00027FA6A46127BB533B8351A702E60FFF7BA
:1035D0001FFA6A46127BBD33C0351A702E60FFF7A2
:1035E00017FA6A46127BC533C8351A702E60FFF78A
:1035F0000FFA6A46127BCD33D0351A702E60FFF772
:1036000007FAD84D2E00AB7CA236039333782800FE
:10361000059301233770AB7400F0D6FE041E01D170
:10362000FFF7F6F96B461B7D33706B461B7BAB7463
:10363000FFF7EEF9CB4D2E00A33633782800039325
:10364000EB7C377005930123EB7400F0BDFE041E84
:1036500001D1FFF7DDF96B461B7B33706B461B7D99
:10366000EB74FFF7D5F9BF4D2E002B7FD6360393B1
:10367000337828000593012337702B7700F0A4FEE0
:10368000041E01D1FFF7C4F96B461B7D33706B46F6
:103690001B7B2B77FFF7BCF9B24800240500D83517
:1036A0002E882F80837FA34201D1FFF7B1F900F06C
:1036B0008BFE041E01D1FFF7ABF92E80FFF7A8F9AE
:1036C000A84800240500DA352E782F70837FA342A6
:1036D00001D1FFF79DF900F077FE041E01D1FFF73D
:1036E00097F92E70FFF794F901239E4D2800AE7FC5
:1036F000AB7700F069FE041E01D1FFF789F9AE77C0
:10370000FFF786F90023974D2800AE7FAB7700F0D6
:103710005BFE041E01D1FFF77BF9AE77FFF778F966
:10372000904800240500D4352E782F70C37EA34224
:1037300001D1FFF76DF900F047FE041E01D1FFF73C
:1037400067F92E70FFF764F9864800240500D53527
:103750002E782F70C37EA34201D1FFF759F900F0F4
:1037600033FE041E01D1FFF753F92E70FFF750F915
:1037700001237C4D2800EE7EEB7600F025FE041E32
:1037800001D1FFF745F9EE76FFF742F90023754DB9
:103790002800EE7EEB7600F017FE041E01D1FFF745
:1037A00037F9EE76FFF734F96E4D2E006B7FD73682
:1037B0000393337828000593012337706B7700F06B
:1037C00003FE041E01D1FFF723F96B461B7D337006
:1037D0006B461B7B6B77FFF71BF9624B5C79002C08
:1037E00000D060E23A689A627A68DA62BA681A636C
:1037F000FA685A63FFF70CF901235A4D28006E79D5
:103800006B7100F0E1FD041E01D1FFF701F96E714B
:10381000FFF7FEF83868052800D947E2514B03F05E
:1038200011FC031B222930371A00012196321E7B1E
:1038300015881973B9881800118000F0C5FD041EA1
:1038400038682CD1052801D9FFF7E2F8454D03F07F
:10385000F9FB4D6A8DADC3D91A00012198325E7B08
:1038600015885973E6E71A0001219A329E7B158864
:103870009973DFE71A0001219C32DE7B1588D9732A
:10388000D8E71A0001219E321E7C15881974D1E7F1
:103890001A000121A0325E7C15885974CAE70528F8
:1038A00000D906E22F4B03F0CDFB03080D12171CC5
:1038B0001E7396331D80FFF7ABF85E7398331D803F
:1038C000FFF7A6F89E739A331D80FFF7A1F8DE7309
:1038D0009C331D80FFF79CF81E749E331D80FFF7FC
:1038E00097F85E74A0331D80FFF792F86B7A002B77
:1038F00003D0280000F0B4FCA8662B00A53318788C
:10390000002801D0FFF784F802F048F92B00A63315
:103910001B781549A83599404B08181803F0A6FBE9
:103920002860FFF775F8AB7A002B05D0290001203D
:1039300000F0B4FC2B1DD8672B00A53318780128A4
:1039400001D0FFF765F802F029F92B00A6331B78A8
:103950000549A83599404B08181803F087FB2860E3
:10396000FFF756F8B806020840420F00EB7A002B2A
:1039700006D02900022000F091FC2B008C33186047
:103980002B00A5331878022801D0FFF741F802F088
:1039900005F92B00A6331B78E249A83599404B085E
:1039A000181803F063FB2860FFF732F82B00A533EB
:1039B0001878032801D0FFF72BF802F0EFF82B005E
:1039C000A6331B78D749A83599404B08181803F03F
:1039D0004DFB2860FFF71CF82B00A533187804284E
:1039E00001D0FFF715F802F0D9F82B00A6331B78A9
:1039F000CC49A83599404B08181803F037FB2860CC
:103A0000FFF706F82B00A5331878052801D0FEF73C
:103A1000FFFF02F0C3F82B00A6331B78C149A8357D
:103A200099404B08181803F021FB2860FEF7F0FFBF
:103A30003A68BD4B0024DA661A00B98870321180EA
:103A40001A00B979723211701A00F9797332117053
:103A50001A003989743211801A00B97A76321170DD
:103A60001A00F97A773211701A00B9897832118008
:103A70001A00B97B7A3211703A8A7C331A80FEF7C9
:103A8000C7FFA94D6E7A002E00D015E10123280052
:103A90006B7200F0E5FBA866280000F095FC041EA0
:103AA00003D0AE666E72FEF7B3FF2B00A5331B7812
:103AB000002B01D0FEF7ACFF02F070F82B00A6330C
:103AC0001B789849A83599404B08181803F0CEFA8E
:103AD0002860FEF79DFF3A68002A00D1EFE03B33F3
:103AE0001B789A4200D9EDE07B681E785D789C785F
:103AF000D87819798C4B012A10D11A0084321670AB
:103B00001A00853215701A00863214701A00873236
:103B10001070883319700024FEF77AFF1A00903273
:103B200016701A00913215701A00923214701A0031
:103B3000933210709433EDE7012F06D17A4A927ACE
:103B4000002A09D0794CFEF763FF022F04D1764A90
:103B5000D27A002A00D0B8E03B331B78BB4200D2B7
:103B6000B6E0002F00D1B6E06F4D2900012F12D131
:103B7000380000F093FB2B1DD867AF72280000F0CF
:103B800023FC041E16D00023012F0DD12A1DD3675C
:103B9000AB72FEF73DFF022000F080FB2B008C3360
:103BA00018600123EB72E9E72A008C321360EB7294
:103BB000FEF72EFF2B00A5331878431E012B01D9E9
:103BC000FEF726FF01F0EAFF2B00A6331B785549CC
:103BD000A83599404B08181803F048FA2860FEF7FA
:103BE00017FF514D2E002B7DA43603933378280008
:103BF0000593012337702B7500F0E6FB041E01D1FD
:103C0000FEF706FF6B461B7D33706B461B7B2B75E7
:103C1000FEF7FEFE0122444B00249A719F64FEF7DA
:103C2000F7FE0024FEF7F4FE414CFEF7F1FE404C97
:103C3000FEF7EEFE3E4CFEF7EBFE3D4CFEF7E8FED7
:103C40003B4CFEF7E5FE3A4CFEF7E2FE384CFEF741
:103C5000DFFE374CFEF7DCFE354CFEF7D9FE344C68
:103C6000FEF7D6FE334CFEF7D3FE334CFEF7D0FE04
:103C7000314CFEF7CDFE2E4CFEF7CAFE2C4CFEF763
:103C8000C7FE2E4CFEF7C4FE2C4CFEF7C1FE284C9E
:103C9000FEF7BEFE264CFEF7BBFE254CFEF7B8FE37
:103CA000234CFEF7B5FE264CFEF7B2FE204CFEF785
:103CB000AFFE1F4CFEF7ACFE224CFEF7A9FE1F4CD8
:103CC000FEF7A6FE1D4CFEF7A3FE184CFEF7A0FE65
:103CD000164CFEF79DFE154CFEF79AFE002D01D105
:103CE000FFF773F8B122C023D200B1589B050B43F4
:103CF000B3500024FFF769F8002D01D1FFF765F8F4
:103D0000C020114A9B001488059AC00014400F4A35
:103D10009B18002C01D1FFF775F81A580C490A407E
:103D20001A50E6E740420F00B80602082D0F1A01AC
:103D3000FF0F1A01F90F1A01FE0F1A01BD0F1A0128
:103D4000590F1A013E0F1A01B6060208000026405C
:103D5000FFFFFFCF37B520220020374BD100591A83
:103D60000531FF31013A0860002AF7D13349196063
:103D7000334999603349196133499961334919626B
:103D80003349996233491963334999633349196453
:103D90003349096808003C300078042800D9314ACA
:103DA0009A640022052800D92F4A1A654A6801241E
:103DB0001000083098652D48802518662C4864420C
:103DC00058662C48DC6798662B482D0218672B48EC
:103DD00012189A6780220B69D20129489A185B1938
:103DE0008025ED0002605219446008309A42F7D1F4
:103DF00085220B6A52019B18802252039A60042389
:103E00006A4613808B8E68460533937000231D49E4
:103E1000019302F097F9002800D001BE6B46002202
:103E20009B5E002B06DB1F2213401E3A9A401300B4
:103E3000154A136037BDC046A8090208080026408D
:103E400000072640040726400807264010072640A2
:103E500084032640880326408C0326409003264096
:103E6000A409020894032640980326400400264033
:103E700000FF03F0480526404405264060F000009E
:103E8000280A0208C929001000E100E0064A0300E0
:103E9000126800203C3212789A4204D9E033034A77
:103EA0009B009858C00F7047A409020800002640E4
:103EB00070B50F4B1B683B331A78431E591E8B415C
:103EC0009A4213D90B4B0C4D8000C41863590B4A0E
:103ED00001201A4080239B051343635102F096F999
:103EE000002063595B005B08635170BD0448FCE728
:103EF000A409020800002640FC050000FFFFFFCFD8
:103F000001004A00094B1B683C331B7883420AD9E5
:103F1000E022074B8000C018920083585B005B08CA
:103F20008350002070470348FCE7C046A4090208FC
:103F30000000264001004A0010B50B4B1B683C33C3
:103F40001B7883420DD90F290BD8E0220F24074B91
:103F50008000C01892008358A34319438150002069
:103F600010BD0348FCE7C046A40902080000264033
:103F700001004A00032818D004D8012813D02ED9F4
:103F8000886A0FE01223FF33984218D01423FF33BE
:103F9000984217D01138FF3843425841114B4042E4
:103FA000184002387047886CFCE7E4310868013833
:103FB000434258410C4B40421840C018F2E7802061
:103FC0000002EFE7094B1B683D3318780138431EA8
:103FD0009841074B4042184080231B02EDE70548FB
:103FE000E0E7C046027D00000024F400A4090208B6
:103FF000FE7FFFFF00127A0002235B4210B51360C0
:10400000314B14001B681A003A321278824258D998
:10401000052856D803F016F803192E43494F0B7B99
:10402000002B4ED04B7A002B08D00B007A331B7834
:10403000022B03D08B6E2360002010BD0B00963343
:104040001888FFF797FF2060F6E74A7B002A38D0F0
:104050003B331B78002B0AD08B7A002B07D00B0048
:1040600088331B78022B02D00431CB6FE3E70B00BF
:104070009833E5E78A7B002A23D03B331B78012B5A
:104080000AD9CB7A002B07D00B0094331B78022B74
:1040900002D08C310B68CEE70B009A33D0E7CB7B94
:1040A000002B0ED00B009C33CAE70B7C002B08D0F2
:1040B0000B009E33C4E74B7C002B02D00B00A033D7
:1040C000BEE70248B9E7C046A4090208FE0F1A017C
:1040D000032819D004D801280FD028D948790DE039
:1040E0001223FF33984214D01423FF33984212D086
:1040F000033B98420BD00F4805E088794342584172
:104100000C4B4042184070470231C87FF6E7C8792F
:10411000F4E7087AF2E70131CB7F002BEBD0064BB6
:104120001B683D3318780138431E9841E8E70020AA
:10413000E9E7C046FE0F1A01A409020810B51B4B9F
:104140001B683A331B7883422DD905282BD802F0FF
:1041500079FF030C12181E240B7B002B23D00B00BD
:1041600096331888FFF7B4FF10BD4B7B002B1AD095
:104170000B009833F5E78B7B002B14D00B009A33A0
:10418000EFE7CB7B002B0ED00B009C33E9E70B7CD9
:10419000002B08D00B009E33E3E74B7C002B02D0B2
:1041A0000B00A033DDE70248DEE7C046A4090208A1
:1041B000FE0F1A010300A8331B6810B50400002B82
:1041C00002D00848584310BD0300A533187801F009
:1041D000E5FC02000120A6342378984040088018AE
:1041E000D840F0E740420F0010B5040001F060FC39
:1041F000002801D0044810BD0449200001F034FD1E
:104200000028F8D0F6E7C046FD0F1A01102700007D
:1042100070B505001400FFF78FFE002818D10D4B74
:104220001B683C331B789D4212D2032C10D8E0212E
:10423000AB003025084A89009B185A582401AA432C
:1042400022435A5080225C58120622435A5070BDB5
:104250000248FCE7A409020800002640FD0F1A01ED
:10426000030010B50400963318882100FFF782FE82
:10427000030000209A1C0FD0220070321188814266
:104280000AD0E06E7334584302F0F0FE21784B1EE2
:104290009941013102F0EAFE10BD000070B5002521
:1042A0000C00A84221D01B4B1B683B331B78834278
:1042B0001BD301281BD10B0098331888FFF75AFE37
:1042C00023002200843385321B78117886342578C8
:1042D000821C1BD000291BD0002D06D0584302F0B1
:1042E000C5FE290002F0C2FE0500280070BD0228AC
:1042F000FBD10B009A331888FFF73CFE2300220005
:10430000903391321B7811789234E0E70025ECE786
:104310000D00EAE7A4090208F8B504000F0001291E
:1043200032D10300817A427B04309833C66F8330E8
:104330001B8805780020814225D0824231D01800A8
:104340002100FFF717FE184BC018184B984228D8C9
:104350006B1E9D41164B6D421D40164BED18237987
:10436000002B1AD0AE421CD3134B9E4219D8210009
:104370003800FFF793FF301A464270410F4E40421B
:104380000F4B3040C018F8BD0300C17A827B9A33CE
:104390008C301B880668C579CCE7AE4201D3094B47
:1043A000E3E70748EFE7C04600F7C2FF0087930343
:1043B000C863E3FF20BCBE0080F0FA0202F0E5FE15
:1043C000FE0F1A0180D1F008F0B504008FB000286C
:1043D00001D101F037F8A621C94BC9005A58D24380
:1043E00092071ED05B584379002B1AD0C54A836AC6
:1043F0009B18C54A934201D901F027F8C36A013BD3
:10440000632B01D901F021F8036BC04A013B9342B1
:1044100001D901F01AF8436B013B934201D901F035
:1044200014F8A379002B0ED02279A36C002A00D1B6
:1044300029E1B74A934201D901F00AF8E36C002B55
:1044400001D101F005F8A31CDB7F002B1FD0230056
:10445000E4331B68012B01D900F0FDFF2300E0339A
:104460001B68AC4A5B01913BFF3B934201D900F0D2
:10447000F2FF2300DC331B68FB2B01D900F0EBFFBC
:104480002300E8331B68032B01D900F0E4FF237BF2
:104490000293002B0FD0A04B1B683A331B78002BE4
:1044A00009D02300963318882100FFF711FE002859
:1044B00001D000F0D3FF637B0393002B0FD0964B0A
:1044C0001B683A331B78012B09D9230098331888CD
:1044D0002100FFF7FDFD002801D000F0C2FFA37B03
:1044E0000493002B0FD08C4B1B683A331B78022BA4
:1044F00009D923009A3318882100FFF7E9FD002825
:1045000001D000F0B1FFE37B0593002B0FD0824B6D
:104510001B683A331B78032B09D923009C33188876
:104520002100FFF7D5FD002801D000F0A0FF237C7B
:104530000693002B0FD0784B1B683A331B78042B63
:1045400009D923009E3318882100FFF7C1FD0028F8
:1045500001D000F08FFF637C0793002B0FD06E4BD0
:104560001B683A331B78052B09D92300A033188820
:104570002100FFF7ADFD002801D000F07EFFB02341
:104580005F4ADB00D358002B5CDB637A002B59D0E9
:10459000029B002B01D100F073FF23009633188893
:1045A0002100FFF7E7FC5D4BC0185D4B984201D935
:1045B00000F066FF5B4AA36E9B182279002A64D044
:1045C000594A934201D900F05BFFE36E574A013B21
:1045D000934201D900F054FF230070331B88544AE2
:1045E000013B9BB2934201D900F04AFF2300723392
:1045F0001B78042B01D900F043FF230074334D4A8C
:104600001B88934201D900F03BFF230076331B78CF
:104610000F2B01D900F034FF230077331B780F2BC9
:1046200001D900F02DFF2300783343491B888B42CA
:1046300001D900F025FF23007C331B88934201D968
:1046400000F01EFF344B1D682B003B331E78002EFC
:1046500001D100F076FFA37A002B0DD0C023284AA9
:10466000DB00D358002B07DB01212000FFF754FEAD
:10467000002801D000F04CFF0027012E01D900F0E6
:104680004CFF00F05EFF2D4AD4E62D4A99E7002F3B
:1046900001D100F056FF38000FB0F0BDE379002BD8
:1046A00001D100F062FF637D002B5DD02B003C3315
:1046B0001B78002B58D02300A5331E782100300032
:1046C000FFF73CFD00284FD13A352B789E424BD264
:1046D000052E49D8300002F0B5FC35494F555B61D5
:1046E000237ADCE7631CDB7F002B01D100F03DFF68
:1046F0002B003D331B78012BD5D000F036FFC04690
:104700000000264000DC0BFFC0EA2101E7030000A7
:1047100080F0FA02D0100000A409020818FCFFFF84
:1047200018DDF50500CA91FE80BA8C01FEFF03007A
:10473000FE1F0000FF010000FF1F000000E1F50563
:1047400000AB8704029B002B0ED0230096331B88FE
:10475000002B09D109AA21003000FFF74DFCB04B16
:10476000099A07009A421FD8AE4F94E7039B002B8B
:10477000FAD023009833EAE7049B002BF4D02300FF
:104780009A33E4E7059B002BEED023009C33DEE751
:10479000069B002BE8D023009E33D8E7079B002B15
:1047A000E2D02300A033D2E7002FDDD12300A833CD
:1047B0001B68002BD8D022009B4E9C4D7343A63221
:1047C0001278AB42D0D8032ACED8A37D002B1DD0BF
:1047D000974B1B683C331B78012B17D92300AC3354
:1047E00018782100FFF7AAFC002801D000F0F6FCA1
:1047F0002300AD331A7803331B687343AB4201D9EE
:1048000000F0ECFC032A01D900F0E8FCE37D002B6A
:104810001DD0874B1B683C331B78022B17D9230014
:10482000B43318782100FFF789FC002801D000F08C
:1048300000FD2300B5331A7803331B687343AB4282
:1048400001D900F0F6FC032A01D900F0F2FC237E26
:10485000002B1DD0764B1B683C331B78032B17D9DC
:104860002300BC3318782100FFF768FC002801D032
:1048700000F0D7FC2300BD331A7803331B68734361
:10488000AB4201D900F0CDFC032A01D900F0C9FCEC
:10489000637E002B1DD0664B1B683C331B78042BBA
:1048A00017D92300C43318782100FFF747FC0028EC
:1048B00001D000F0D3FC2300C5331A7803331B6802
:1048C0007343AB4201D900F0C9FC032A01D900F0BF
:1048D000C5FCA37E002B1ED0554B1B683C331B78B8
:1048E000052B18D92300CC3318782100FFF726FCBC
:1048F000002801D000F0D2FC22002300D032126840
:10490000CD3356431B78AE4201D900F0C7FC032BD0
:1049100001D900F0C3FCE37E002B0AD1637F002B9A
:1049200026D1A37C002B49D1E37C002B58D1414FE9
:10493000B1E62300D4331B78210018000293FFF75F
:10494000FDFB002812D12600D5363378042B0DD874
:1049500009AA21000298FFF74FFB002806D13378FF
:10496000099ADA401300344A9342D7D9334F92E67A
:104970002300D7331B78002B03D0012B05D0304FF9
:1049800089E6237A002BCCD1F9E7237F002BF6D0E0
:104990002300D6331B78012BF3D0002B0CD0032B34
:1049A000EDD1631CDB7F002BE9D0214B1B683D332D
:1049B0001B78012BE3D1B4E7E379E3E7637D002BB8
:1049C00001D1204F67E62000FFF7F4FB2300A2335C
:1049D0001978013102F04AFB174B9842A4D9F0E74D
:1049E000637D002BA3D02000FFF7E4FBA8429ED8F4
:1049F0002300A33303931978013102F037FB2379A5
:104A0000002B0AD0104B984291D8A37F002B21D1C4
:104A1000237D002B54D10D4F3DE60D4BF3E7C046EF
:104A20003F0D03009F0F1A0140420F0080D1F00894
:104A3000A40902088C0F1A010084D7178F0F1A01DE
:104A40008E0F1A018D0F1A0140787D018B0F1A010C
:104A500000E1F50523000222D8331B88FF32934280
:104A600004D022D8002B28D0012B24D1617D00292D
:104A700021D00226934208D0BA4AB619934204D0F4
:104A8000B94A0436934200D0073E2000FFF792FB5C
:104A90002300DA331978013102F0E8FA310002F02C
:104AA000E5FAB24B9842B3D905E0AE498B42DDD06E
:104AB000AD498B42DAD0AE4FEDE50126AD48E7E7D0
:104AC000E37C002BA7D02000FFF774FBA84200D99D
:104AD0002DE7039BE61C1978251D013102F0C6FA6B
:104AE0002300A43305931978013102F0BFFAA24BD9
:104AF000984290D89621002001F0CCFB2378002B1F
:104B000033D06378002B0FD0F07F012806D9631DC6
:104B1000DB7F002B10D101F097FD0FE001F02EFF9D
:104B20000028F4D0954FB6E5E87F022801D005288B
:104B3000EDD101F07BFFF3E701F062FD0028F1D138
:104B40008F4B90495A6CFF200A40E82189010A43A3
:104B50005A64A278002A76D05A6C120A02403A2A85
:104B600003D1596C884A0A435A64884B1B683D3309
:104B70001B780293012B0CD1854E864D631C725914
:104B8000DB7F92006AD5002B03D17359DB00DB0871
:104B9000735108267A4A237A1568029235406ED0FE
:104BA000002B07D17B2001F031FB029B029A1B688E
:104BB000B3431360237F002B1BD02300A0220325C7
:104BC000D6331B78724E0493D200B35804992B400D
:104BD00099420ED002F000F9002801D000F056FCF6
:104BE000A0220499D200B3582940AB430D001D43C5
:104BF000B5500122684B6949C858A31CDB7F10429D
:104C000003D06748095811427BD1002B7DD002F0B8
:104C100033F92300E8331968043B186808331B682C
:104C20002200DBB200932300DC32E033C9B2C0B211
:104C30001B681268FDF79AF8002866D0594B984215
:104C400063D0594F27E55A6C120A02403A2A8CD198
:104C50005A6C564802401143596486E7002B98D09D
:104C600002F00AF9802372591B061343735102980C
:104C700001F0B2FAC0237259DB05134388E7002B19
:104C800098D002F0F9F8A06D00280FD0E36D002B4A
:104C90000CD02B002A00216E0095FDF7A9FB009592
:104CA0002B002A00616EE06DFDF7A2FB2300563356
:104CB0001B783F4A002B17D0029B1B681A408023A9
:104CC0005B021343029A04261360029B394D1A6853
:104CD00008231343029A1360029B1B6933420CD1D1
:104CE000002D05D1344FD6E4029B1B681340E9E741
:104CF000012001F08BFA013DEEE7002D00D059E7CD
:104D0000F0E7002B01D1FCF7E5FFA6212048C90000
:104D100043586279DB4306009B0751D04358002A71
:104D200055D002F0A9F8A06B002810D0E36B002B3F
:104D30000DD00025216C2B002A000095FDF758FBB3
:104D400000952B002A00616CE06BFDF751FB636B53
:104D5000226BE16AA06A00F055FC002800D191E0C6
:104D6000164F98E401020000010300000084D717E9
:104D7000890F1A0100127A0000E1F5056F0F1A0180
:104D800000002740FF00FFFF003A0020A4090208AE
:104D9000000026403C050000A0F0010000003C405F
:104DA000B4F00100030016005D0F1A01FFC5FFDF1C
:104DB000FFFFFEFF40420F005A0F1A015F0F1A015A
:104DC000002A04D1C74A83585B005B088350A3794B
:104DD000002B0ED0E06C002808D0230054331B7841
:104DE00008220093216D0023FDF702FBA06C00F068
:104DF000FFFBA37C002B0FD0BB4BBC481B681900EA
:104E000008311A68CB6FD2182300A23311681B78BF
:104E100001401B020B431360E37C002B0DD0B24B0F
:104E20001B681A1D1968D36FC918039B0A681B7881
:104E300012021B06120A13430B60237D002B0DD0B8
:104E4000A94BAA481B68191D1A68CB6FD218059B7D
:104E500011681B7801401B020B43136025001222CE
:104E600096352B88FF32934226D12300A53319783B
:104E7000002921D1012000F09FFC002808D09C4F80
:104E8000FFF709FC9B4800F05BFC00289FD067E718
:104E90000121FFF751F800280BD1237B002B14D000
:104EA0002988002000F088FC00280ED0924FFFF7E0
:104EB000F2FB924FFFF7EFFB230098331988012094
:104EC00000F07AFC0028E8D0D9E7A37B002B0AD0B9
:104ED00023009A331988022000F06EFC002802D0CB
:104EE000874FFFF7D8FBE37B002B67D1237C002B98
:104EF00075D1637C002B00D083E0B022D200B15882
:104F0000637A002900DB8FE0002B11D1B120C000B3
:104F100033587C49194080239B050B433350B358C9
:104F20005B005B08B350784AB3585B005B08B35032
:104F30002300A533039319780020FEF7FDFF002816
:104F4000B7D1694B1B683C331B78002BB1D02300D1
:104F5000A6331A78032AACD8E02189007358303080
:104F6000120183431343122273502B88FF32934262
:104F700000D192E05C4D2B683B331B78002B00D0B6
:104F80009EE00120FEF782FFA37D002800D128E1EA
:104F9000002B00D11CE10220FEF778FFE37D002802
:104FA00000D02AE1002B00D129E12300B5331A7883
:104FB000013B19780220FFF72BF938E14A4B1B68B7
:104FC0003A331B78032B91D923009C331988032093
:104FD00000F0F2FB002889D04C4FFFF75CFB424BFE
:104FE0001B683A331B78042B83D923009E3319881E
:104FF000042000F0E1FB002800D17AE7444FFFF7DE
:105000004AFB394B1B683A331B78052B00D874E7F1
:105010002300A0331988052000F0CEFB002800D122
:105020006BE73C4FFFF737FB002B00D180E701F027
:1050300023FFE36E09A80993230070331B88838044
:10504000230072331B788371230073331B78C37181
:10505000230074331B880381230076331B7883720B
:10506000230077331B78C372230078331B88838136
:1050700023007A331B78837323007C331B880382DD
:1050800000F018FC002805D1234800F09DFC002802
:1050900000D14DE7214FFFF7FEFA039B1B78002B51
:1050A00000D067E7637B002B00D1E8E6230098334C
:1050B0001988012000F080FB002800D15AE7DEE6C5
:1050C000C023DB00F258A37A002A2BDA002B47D149
:1050D00001F0D2FE0120FEF7EBFE002840D0104F79
:1050E000FFF7D9FA2C050000A4090208FF00FFFF12
:1050F0004E0F1A01B80B00004F0F1A010F0F1A01C3
:105100004D0F1A01FFFFFFCF8C0500004C0F1A0155
:105110004B0F1A014A0F1A01400D03003F0F1A01ED
:105120002F0F1A01002B1BD0230084331B7806AAF3
:105130001373230085331B785373230086331B7846
:105140009373230087331B78D373230088331B7832
:10515000137401F091FE09A90120FFF745F8BCE79F
:105160002B683B331B78012B00D80AE7C94BF25858
:10517000E37A002A0DDA002B00D002E701F07CFE72
:105180000220FEF795FE002800D1FAE6C24FFFF795
:1051900082FA002B00D1F4E6230090331B7806AA94
:1051A0001373230091331B785373230092331B78BE
:1051B0009373230093331B78D373230094331B78AA
:1051C000137401F059FE09A90220FFF70DF8DAE780
:1051D0000120FEF797FE002800D1DCE6AF4FFFF775
:1051E0005AFA002B00D1D6E62300AD331A78013BE2
:1051F00019780120FFF70CF8EDE7002B14D02B688D
:105200003C331B78032B17D90320FEF73FFE237E88
:10521000002826D0002B0FD10320FEF773FE0028B4
:105220000AD09F4FFFF737FA0220FEF76BFE0028E7
:10523000E5D09C4FFFF72FFA2B683C331B78042BEB
:105240001AD90420FEF722FE637E002829D0002B05
:1052500012D10420FEF756FE00280DD0924FFFF722
:105260001AFA002BE8D02300BD331A78013B1978D5
:105270000320FEF7CDFFD2E72B683C331B78052BCC
:105280001AD90520FEF702FEA37E00284CD0002B81
:1052900012D10520FEF736FE00280DD0834FFFF710
:1052A000FAF9002BE8D02300C5331A78013B1978AE
:1052B0000420FEF7ADFFCFE77D4BA27FF158002918
:1052C0003DDA002A03D1F25852005208F250A023CE
:1052D0008021DB00F0580902E27E08424DD0002A0E
:1052E00003D1F25873490A40F250637F002B0DD06E
:1052F000029BC0211A682300D7331B7889001B0248
:105300000B406D490A401343029A13602300553342
:105310001D786A4B1B78AB425BD001F05DFD002825
:105320004FD0674FFFF7B7F9002BC5D02300CD331F
:105330001A78013B19780520FEF76AFFACE7002ACE
:10534000C5D021002200DA310878F158D83249005E
:1053500049081288F150F5585A49000429405A4D1D
:105360002A400A43F250F25858490A400243F25088
:105370008022F15812060A43A8E7002AB5D020007F
:105380002200D5300078D43212788446494DF05846
:1053900028401502F022F0501201F0582A404C4DDE
:1053A00028400243E0256046F2500003ED01F25828
:1053B0000540484802402A43F250F2581143F15048
:1053C00093E70121444AB3588B432B43B3503B4BE3
:1053D0001D70414DE3797259002A24DA002B12D155
:1053E000A32000F013FF7359002B0CDA01F0F4FC3A
:1053F000002896D1C0235B00F358DB0791D4735982
:105400005B005B0873512378002B08D0637D002B71
:1054100005D02300A8332079196800F03BFF01F084
:105420002BFDFFF738F9002BEDD07359002BEADB89
:1054300001F0D2FC002800D073E7802372591B06CC
:105440001343DFE7254FFFF726F9254FFFF723F931
:10545000244FFFF720F9244FFFF71DF9234FFFF7E3
:105460001AF9234FFFF717F9224FFFF714F9224FCC
:10547000FFF711F9214FFFF70EF9214FFFF70BF955
:10548000204FFFF708F9204FFFF705F91F4FFFF7EF
:1054900002F9C046040600002E0F1A019E0F1A01E1
:1054A0009C0F1A019D0F1A019B0F1A019A0F1A01E6
:1054B00004050000FF7FFFFFFFFCFFFFA9070208B4
:1054C0005C0F1A01FEFCFFFF01030000FFFF00FF5D
:1054D000FFF0FFFFFF8FFFFF0C050000FE0F1A011A
:1054E000EF0F1A01EE0F1A01ED0F1A01DF0F1A016B
:1054F000DE0F1A01DD0F1A01DC0F1A01DB0F1A0192
:10550000DA0F1A01CF0F1A01BE0F1A011F0F1A016D
:10551000174F012E01D8FFF7BEF8E37A002B01D117
:10552000FFF7B5F8002F01D0FFF7B5F8114B124A7D
:10553000D358002B05DB02212000FEF7EDFE0028EA
:10554000A1D1237F002B01D1FFF7ADF82300D63383
:105550001B78012B01D1FFF7C3F8002B01D1FFF716
:105560009DF8032B01D1FFF7BDF8044FFFF793F827
:10557000BF0F1A010406000000002640AF0F1A01F9
:10558000F0230A041B0330B51A400F240B002340FC
:105590001A43084B1D68830228691B188020C0012C
:1055A0001A5018582040401A411E88410249404272
:1055B000084030BDA40902080300C200044B1030AB
:1055C0001B6880021B69C0580F2318407047C046F3
:1055D000A4090208A6220549D2008B580220DB4309
:1055E0009B0702D0012388581840704700002640CE
:1055F000024B984201D8024B1860704700E1F50554
:10560000B4070208F0B516001F003B4A3B4B0C00E4
:10561000D15885B0029001920393002967DB384985
:10562000384A4318934264D8631E632B61D8364AC4
:10563000731E93425DD8354A7B1E934259D8FA2196
:10564000F5308900FF3001F011FD050030483100D0
:1056500047437008381801F009FD80228446102362
:1056600000201202010011430F004F43BC4500D33C
:105670000800013B5208002BF4D12900254B61435F
:1056800058434B08C01801F0F1FC234B984230D925
:105690006D43224B2249E81801F0E8FC6443604363
:1056A0006421323001F0E2FC1E49704301F0DEFC5F
:1056B00003281ED8012801D8012358401A4A019B0B
:1056C0001A499B5800031940194B0B431843019B7F
:1056D00003999850019B039A00209A580223134380
:1056E000019A5350134B029A1A6005B0F0BD12484C
:1056F000FBE71248F9E7C046000026402C050000F1
:1057000000DC0BFFC0EA2101E7030000CF07000027
:1057100080841E00B36D0200890200005DF7000066
:10572000BBEE0100A0BB0D0020FF000008C0FFFF82
:10573000F7030000B807020803004A0001004A000E
:10574000124A134B70B5D158050000291BDB80218C
:105750002C00D05809060143D150FFF73BFF022827
:1057600001D0002C0AD10020854206D0601E844161
:10577000084B60421840084BC01870BD012000F073
:1057800045FD013CE9E70548F7E7C0460000264033
:105790002C050000FEFFB5FF02004A0003004A008E
:1057A00010B5FFF717FF0023022801D1014B1B683A
:1057B000180010BDB8070208104B1B683A331B785D
:1057C000834219D9042910D94B1EFF3B132B13D840
:1057D0001F2319400A4B8000C018C02304229B00DD
:1057E000C1504033C250002070470723D0301940C9
:1057F000034B8000C150F6E70248F5E7A409020810
:105800000000264001004A00094A83009B18D0226C
:105810009200985807221040042807D1C022920015
:1058200098581F2303408020400018437047C0460B
:105830000000264010B5FFF7E7FF03281CD005D86D
:10584000012816D013D9FFF7ABFF11E01223FF3365
:10585000984213D01423FF33984217D0033B984249
:1058600017D10D4A0D4BD058C00FC00300E00C48B3
:1058700010BD0C4B1868FBE70B4BFBE70B4B186993
:1058800004231840F4D080200002F1E7024A084BBC
:10589000E9E70020ECE7C046000026400C050000C8
:1058A00000127A00B407020814080208000027401A
:1058B0003C05000070B5B024224AE4001359002BC7
:1058C0003DDBC17903684D1EA9419B0309069B0B73
:1058D0000B431351038984881B491B04E4040B40C8
:1058E000E40C2343194C1A4D1351FF24C37AE026CC
:1058F0001B0123408489F60024022C400F252343FA
:10590000847A2C40C0252343847BAD0524072C409A
:105910002343B124E400135183790E4C1B02155923
:1059200033400D4E35402B431351038A00201B0496
:1059300015590B40094929400B43135170BD0848C4
:10594000FCE7C046000026400000FF01840500007F
:1059500000FF1F008C050000FFF8FFFFFFFF00FEA7
:1059600003004A00B023154ADB00D35810B5990351
:10597000DB01DB0F890BC371114B0160D3580F247E
:10598000D904DB01DB0D0381B123DB00D358C90C43
:10599000818019002140817219092140C172D90208
:1059A0009B009B0F8373074BC90CD35881815A0509
:1059B000DB01520FDB0D8271038210BD0000264017
:1059C000840500008C050000F7B58022B226070090
:1059D0000500324B324C1206E158F6000A43E25001
:1059E00000930422A359134201D1002D35D1B120D7
:1059F0008023C00022582B499B050A4013432350A3
:105A00000191002F01D0002D06D0B0228023D200BA
:105A1000A1581B060B43A3500126B223DB00E35819
:105A2000334224D1002D1DD1002F24D0B121C90033
:105A30006258019B1C481A4080239B051343B022E7
:105A40006350D200A3585B005B08A350009B009AF0
:105A5000E3585B005B08A350FEBD012000F0D6FBBD
:105A6000013DBEE7300000F0D1FB013DD5E7002F3E
:105A700001D0002DDAD0B122C0230020D200A158DD
:105A80009B050B43A3508742E6D0681E85416842C0
:105A9000064D054B2840C018DEE7C0468C050000C7
:105AA00000002640FFFFFFCF02004A00FEFFB5FFC7
:105AB000F0B5204B1B683B331B78834233D31E4B1E
:105AC00080001E4CC0180359002B2ADB8E78B31EB1
:105AD0000E2B28D84F787B1E112B24D80B78CD782D
:105AE0009C46002D21D1152B1DD970239C451AD819
:105AF0000A79022A0AD07F23614619400B003F022F
:105B00003B4336043343ED062B430351C0211207B8
:105B1000890503590A400A490B401A4302510020E3
:105B2000F0BD0848FCE70848FAE7122BFBD93823F8
:105B3000DCE7C046A409020800002640FC0500007E
:105B4000FFFFFFCF03004A0001004A0010B5104BD1
:105B5000421E1B683B331B78934216D97F221F24B9
:105B60008030FF300B4B8000C3581A400A701A0C6B
:105B70002240180A8A701A012040E2404870002032
:105B80009B009B0FCA700B7110BD0348FCE7C04619
:105B9000A40902080000264001004A00F0B587B0C1
:105BA0000400FFF747FE0600002C38D101AD142297
:105BB0002100280001F04FFC2800FFF7D3FEB0239E
:105BC000274ADB00D358002B03DAAC7B023C631E70
:105BD0009C41EA79019F531E9A41A8880132002C0A
:105BE0001AD0002818D0002A16D00023190001F07E
:105BF000E9FA00230C0005003A003000190001F01A
:105C0000E1FAE6076A0832436308801859412A001E
:105C1000230001F0B7FA0600300007B0F0BD114BC9
:105C20001B683B331B78A342F6D301AD052200214C
:105C3000280001F010FC200029008034FFF786FFC7
:105C4000FF34074BA400E3580024A34203DA2C7965
:105C5000023C631E9C412F786878AA78BFE7C04653
:105C600000002640A4090208F8B5174B0D001B6878
:105C70003B331A78431E9A4223D9144B8000C41830
:105C800080232E000127124A1B06A1580B43A35064
:105C9000104BE3583B420AD1002E03D168426841C1
:105CA000404209E0380000F0B1FA013EF0E7281E5A
:105CB00008D0701E86417042074B1840074BC01831
:105CC00000E00748F8BDC046A409020800002640CD
:105CD000FC0500003C060000FEFFB5FF02004A0084
:105CE00001004A00F7B5484B00911500984200D9D1
:105CF00087E09A4200D984E0444B994200D980E081
:105D00000122434B1A70FF2845D80F2307261C0099
:105D10001840FF2D58D8FF222D0115402843F025AB
:105D2000E0222C43F025D20232432D032B43394D80
:105D300007262F683D00AC352D886E43350001964F
:105D40003E6AAD192E68002EFCDA334D2E78334DA5
:105D5000002E03D0324EAE59002E50DA314E324969
:105D60003160324E32493160A321C9006E58A643DA
:105D70000643304C6E5028599843024300202A5164
:105D80002D4B009A1A60264BEA503B6A019AD318B1
:105D900000225A60FEBD294B984205D80F231840B7
:105DA000060000242000B4E7254B060A984204D8D8
:105DB000FF2304011C402643F3E7F02300021B01EC
:105DC000184006431F4BECE71C4A954205D82A04AD
:105DD000F0252D032A403243A8E72A0A1204324351
:105DE000174EB54207D8F0262D05360435402A4314
:105DF000FF252D049AE72D062A43134D96E71348F5
:105E0000C3E71248C6E7C0460F060000FFFFFF00C9
:105E1000B0070208A4090208BC07020800002640D7
:105E20001C050000080126401F1F00000401264039
:105E30003D3D000014050000AC070208FF0400000F
:105E4000FF0500000F0F000000000F0F01004A00C7
:105E50000022F8B5224B1A70224B1A681300AC339B
:105E60001C8807236343126A9B181A68002AFCDA0D
:105E70001D4A002415681D4A954205D11C4A1D4C37
:105E80001268121954425441A4221B4DD200AF583B
:105E900000255D60AC4215D03F023E0AAE4211D0F3
:105EA000164B1C68A8420FD122002B0008002900C5
:105EB00001F088F92B007A0A80185941320001F06C
:105EC00061F905002800F8BD0A002B003000290008
:105ED00001F078F92B006208801859412200EEE7A2
