:020000041000EA
:1004000000C00E08EB0400100D0000004D050010A8
:1004100000000000000000000000000000000000DC
:10042000000000000000000000000000490500106E
:100430000000000000000000490500104905001000
:100440004905001049050010490500104905001034
:100450004905001049050010490500104905001024
:100460004905001049050010490500104905001014
:100470004905001049050010490500104905001004
:1004800010B5064C2378002B07D1054B002B02D06A
:10049000044800E000BF0123237010BDF0050E08E2
:1004A0000000000024730010044B10B5002B03D093
:1004B0000349044800E000BF10BDC0460000000032
:1004C000F4050E08247300100230800803D00130B8
:1004D0000238FCD1C046C0467047EFF3108072B6B8
:1004E000704780F3108870477047FFF7FDFF72B6C2
:1004F0000F4C104DAC4209DA21686268A368043BD6
:1005000002DBC858D050FAE70C34F3E70A490B4A2B
:100510000020521A02DD043A8850FCDC08480949E0
:100520000860BFF34F8F06F001F805F08BFFFEE780
:100530003073001048730010F0050E08B00B0E0861
:1005400000000E0808ED00E0FEE7FEE700B504201D
:100550007146084202D0EFF3098001E0EFF3088012
:10056000043005F08BF9FEE70300093B0122042B60
:1005700002D920384242424110007047F0B50025B0
:10058000170006002C0089B003930E9B02901B0CF1
:10059000DBB204930E9B00911B0ADBB205930E9B0A
:1005A000DBB20793731C069333780193002B08D0BA
:1005B000009B002B22DB029A731C9B1A009A9A4222
:1005C0001CDA0E9BDBB2002B00D1B4E0019A9A42F8
:1005D00000D0AEE0009B002B06DB029A731C9B1A36
:1005E000009A934200DDA4E0B31C7678032D00D975
:1005F000A1E0280006F03AF88989637B0198FFF7AB
:10060000B3FF002839D1079B019A9342D9D04F4EAE
:100610001100300006F0F6FA031E08D1049B019A7F
:1006200093420BD0059B93426FD133003F33032D90
:1006300023D8280006F01AF80510233533003E337E
:10064000F5E7002F06D0039A94425ED23F4A9B1AE8
:100650009B003B55012510E0621C002F0BD0039935
:100660008A4252D239493C195B1A21781811014348
:100670001B012170BB5414000225069E92E7621CE8
:10068000002F0BD003998A423FD230493C195B1AA4
:100690002178981001439B012170BB54140003255D
:1006A000EBE7002F08D0039A94422ED227493A193B
:1006B0005B1A11780B43137001340025DDE71D0030
:1006C000002E22D0009B002B22DB029B009AEB1A0B
:1006D0009A421DDA019BB34217D1009B002B04DD27
:1006E000029B009AEB1A93420FDC2E786B1C029A45
:1006F0009D1A002E04D0009B002B11DBAB420FDAB9
:10070000002F18D03B5D002B15D00124644219E066
:100710003000FFF729FF0028DCD02E780135CFE725
:100720003000FFF721FF0028EFD0029B5E5D01350E
:10073000DFE7002DE9D1039B9C42E6D2002F01D0D8
:1007400000233B55200009B0F0BDC046586E001094
:10075000002210B504001000A15C0B00303B092BF7
:1007600009D830380818531C032A03D000011A0096
:10077000042BF1D110BD0B00413B052B01D83738BC
:10078000F0E70B00613B052B01D85738EAE7002062
:10079000F0E70000F0B50B7885B0039017004D1C12
:1007A000222B17D0116000202AE05C2A07D1019A81
:1007B0005278002AF7D0019A013301320192019A4E
:1007C00001320192019A1278222A00D1A7E0002A70
:1007D000EBD1E8E701950023F4E72B785C2B11D0EF
:1007E000237001350134019B9D42F6D30023039A07
:1007F00023700833D36013000198029A01301A6104
:1008000005B0F0BD6B78662B63D014D82F2B61D068
:1008100007D8222B5ED0484B3D601B680298984752
:10082000C1E75C2B56D0622BF5D10823237001342D
:10083000063BED18D7E7722B50D006D86E2BEAD1C5
:100840000A2323700134083BF3E7742B48D0752B3F
:10085000E1D1019B5B1B052BDDDDA81CFFF778FFB9
:10086000364B374AC31806009342D4D90028D2D059
:10087000344B334AC318934234D8019AAB1DD31A70
:10088000052BC8DDAB795C2BC5D1EB79752BC2D1BB
:1008900028000830FFF75CFF284B294AC318934211
:1008A000B9D8294BB6021E4080238005800D5B021B
:1008B0000643F6180C23254A96421FD9244A96422D
:1008C000A9D83F203040802676420643E6700422B5
:1008D00012E00C23237001340223AAE70D23F9E769
:1008E0000923F7E77F2804D91A4B98420ED906232B
:1008F000E1E7062301222070A4189AE73F20304048
:10090000802676420643A6700322F5E73F20802327
:1009100006405B421E43667086330222ECE7019A72
:10092000501AC01A0C4B04301B6898470290041EE2
:1009300000D058E737E7C04680000E080024FFFFCC
:10094000FF0300000028FFFF00FC0F00FFFF000076
:10095000FFFF1000FF07000084000E08002803D0EE
:100960000378013B1F2B00D970470130F6E70000E8
:10097000064B10B51B6828209847041E03D0282278
:10098000002106F07CF8200010BDC04684000E084F
:100990000849094A002803D1084B0B60084B07E0BF
:1009A0000368002B00D1054B0B604368002BF5D08A
:1009B0001360704784000E0880000E08216A001042
:1009C000356A0010F8B5802604007600002C00D1AE
:1009D000F8BDE3682768334204D1A068002801D03D
:1009E000FFF7F0FFE3680B4D334204D12069002884
:1009F00001D02B6898478022E3689200134204D10B
:100A0000206A002801D02B68984720002B6898475F
:100A10003C00DBE780000E08F0B5040085B00F0055
:100A20001600002901D1002013E004226F4938008C
:100A300006F008F9002803D10223E360381D08E01E
:100A400005226B49380006F0FDF8002803D1E0606C
:100A5000781D05B0F0BD04226649380006F0F2F8B2
:100A6000002806D101230122E3600023A261E36193
:100A7000E4E73B78222B05D1320039002000FFF754
:100A800089FEE6E72D2B03D01A00303A092A24D834
:100A900000250A2203A93800039506F091F9030006
:100AA00003988742BFD05A1C0AD1534A914211D1B0
:100AB0000122514B5242A261E3610423E360C8E783
:100AC000002B07D180221206914203D180230022FD
:100AD0001B06F0E7A361E161EFE75B2B35D1781CE2
:100AE000FFF73CFF037805005D2B26D00023013D76
:100AF00001930093FFF73CFF009B071E6FD0002B74
:100B000019D0019B18604360681CFFF727FF320073
:100B100001003800FFF780FFFFF720FF051E06D019
:100B2000037801972C2BE5D05D2B08D0306000981E
:100B3000FFF748FF77E70090E6E7002300931023D4
:100B4000E360009B681CA36083E77B2B4BD1781C80
:100B5000FFF704FF037807007D2B38D00023013F07
:100B600001930093FFF704FF009B051E37D0002B75
:100B700017D0019B18604360781CFFF7EFFE32002E
:100B800001002800FFF706FEFFF7E8FE0028CED0A0
:100B90002B692B6200232B6103783A2B03D0306042
:100BA000C5E70090E8E70130FFF7D8FE320001000A
:100BB0002800FFF731FFFFF7D1FE071EB7D00378FB
:100BC00001952C2BCED07D2B03D03060AFE70023D6
:100BD00000932023E360009B781CA36039E7002B7F
:100BE00000D120E7A3E737601DE7C046976E0010ED
:100BF0009C6E0010A26E0010FFFFFF7FF7B505008E
:100C00000E0001920F1E00D1144FFFF7B1FE00231A
:100C100004003B6098420DD02800FFF79FFE3A0089
:100C200001002000FFF7F8FE051E05D12000FFF7A8
:100C3000C9FE00242000FEBD019B002B0AD0FFF757
:100C40008DFE03780500002B04D02000FFF7BAFECC
:100C50003D60EEE7002EEDD03560EBE70C060E08A8
:100C6000002210B51100FFF7C9FF10BDF0B58DB01F
:100C70001D0012AB40CB02921B780F0003930023A0
:100C800006AA05A90593069300F021F9041E3FD199
:100C9000224B3A0000930699029B0598FFF76EFCE1
:100CA000002838DD022008AA07A9FF30079408941D
:100CB00000F0CAFE002802D06524644228E0290022
:100CC000079800F0E7FC0028F6D1033008AA07A92E
:100CD000FF3000F0B9FE0028EED13100079800F097
:100CE00077FC041E14D109A9380000F008F9041E8D
:100CF0000ED131000A9800F0C7FB041E08D1039AF8
:100D000029000B9800F01AF904000998FFF75AFE21
:100D100020000DB0F0BD1424CFE7C046005F2D00C9
:100D2000F0B51F00002387B00291039204A905AA21
:100D300006000493059300F0CAF8041E1ED105981E
:100D400000F068F8040005F06BFE051E1CD0104B87
:100D500002000093059923000498FFF70FFC002878
:100D60000FDD039B220000930197029B29003000B6
:100D7000FFF77CFF0400280005F05CFE200007B0B0
:100D8000F0BD14246442F6E764246442F6E7C046EA
:100D9000005F2D0010B5010004000B4805F040FF76
:100DA000002398420DD02100084805F039FF0123A7
:100DB000002806D02100064805F032FF4342434197
:100DC0005B00180010BDC046966F00109F6F0010AA
:100DD000A76F001010B5010004000B4805F020FFBC
:100DE000002398420DD02100084805F019FF012387
:100DF000002806D02100064805F012FF4342434177
:100E00005B00180010BDC0467C6F0010856F00109D
:100E1000916F0010032358438008984304307047B3
:100E2000F8B5C3680D000860202B19D184680E4FF7
:100E3000002C01D12000F8BD266A002E06D031001A
:100E40000A4805F0EDFE002802D16C602468EFE747
:100E50003100380005F0E4FE0028F7D1AC60F5E77A
:100E600002204042E7E7C046B56F0010AF6F0010A8
:100E7000F0B507000D00002491B001AE002D02D1A5
:100E8000280011B0F0BD296A002904D0380005F00F
:100E9000C7FE0028F4D0AB68002B06D00E2C12D869
:100EA000A200955101341D00E8E72B68002BFAD110
:100EB000002C0AD0013CA3009B591B68002BF2D1E7
:100EC000002CF7D1EFE70025DAE72500D8E7F8B5E1
:100ED0000E002E21170005F095FE041E0CD0451CB7
:100EE0002E21280005F08EFE002805D0001B0138B9
:100EF000386000203560F8BD16204042FBE770B531
:100F0000050000200C00FFF743FD2800FFF7A8FEB6
:100F1000002803D02100FFF783FF70BD0520404269
:100F2000FBE7002304220133002901D1904203D9B9
:100F300052001D2BF7D1023318007047F0B589B06D
:100F400005900C000100C6480792FFF791FF0028AA
:100F500000D11FE283680193029300231F000693D0
:100F60000493029B002B42D1019BDB680293202B50
:100F700000D010E2019D2900BA48FFF779FF061E54
:100F800000D198E0037E079A9A4200D093E00100D6
:100F9000B548FFF76DFF002800D189E08369237011
:100FA0003100B248FFF764FF1423002800D08369A2
:100FB0006360002F00D0EEE1019E3100A948FFF7E9
:100FC00057FF00287CD02278037E9A4278D13100E6
:100FD000A748FFF74DFF002800D1FCE028238269D5
:100FE000551E6B43E3181A74022302936FE00299B3
:100FF000A048FFF73DFF002802D08668002E03D1ED
:10100000029B1B680293ACE731009B48FFF730FF5F
:1010100000284BD0036999491800039305F000FE9E
:10102000002843D09649039805F0FAFD00283DD0EA
:101030000025944AAB009958039805F0F1FD071E6E
:1010400005D00135172DF4D10527183D7F42310019
:101050008D48FFF70DFF002801D08369069331000A
:101060008A48FFF705FF002804D0C1698069FFF7AF
:1010700058FF04906B1C19D0049B002B16DDAD2388
:101080006A00A2185B00D35C012B05D12B000F3343
:10109000DB000699E31859605C23FF33D35C012B16
:1010A00004D10F35ED00049B6519AB603668A5E7E8
:1010B00001277F4274E72D68002D00D05BE778E7B9
:1010C0003668002E00D078E7012335000293002E09
:1010D00000D084E031006E48FFF7CAFE002800D03F
:1010E0000FE131006B48FFF7C3FE00280ED00D233F
:1010F0006B43E3183633FF331B78012B06D1C268EC
:101100002733511E8A416B43E3185A7031006248FD
:10111000FFF7AEFE00280ED00D236B43E3183833E3
:10112000FF331B78012B06D1C2682733511E8A4139
:101130006B43E3181A7231005848FFF799FE0028F4
:101140000CD00D236B43E3183833FF331B78012B8E
:1011500004D127336B438269E3185A723100504837
:10116000FFF786FE00280FD00D236B43E3184133B1
:10117000FF331B78012B07D1C2682733511E8A41E8
:101180006B43E3180833DA7731004648FFF770FE07
:10119000002800D1C5E0C368102B00D0C1E08268F0
:1011A0000D211B2000236943684361180390002A26
:1011B00000D1B6E01F003E37FF37CF5D012F04D1CD
:1011C00003981F1890692437C8550133032B00D1A9
:1011D000A7E01268EBE701230500029377E73100EF
:1011E0002448FFF745FE002800D173E78768002FE9
:1011F00000D16FE739002048FFF73AFE00282DD0D4
:1012000003691E491800039305F00AFD00284BD11D
:1012100039001D48FFF72CFE00280CD00D236B432E
:10122000E3183A33FF331B78012B04D127336B4388
:101230008269E3185A6139001448FFF719FE002843
:101240000CD00D236B43E3183B33FF331B78012B8A
:1012500004D127336B438269E3189A613F68C6E77C
:101260007C6F00101D6F0010CB6E0010D26E00104E
:10127000DA6E0010A76E0010C26F0010B16E001081
:10128000B66E001088000E08BE6E0010C66E00100C
:10129000E66E0010BA6F0010F06E0010F86E0010CD
:1012A000076F00100E6F00106B49039805F0B8FC33
:1012B0000028D3D139006948FFF7DAFD00280CD0A7
:1012C0000D236B43E3183C33FF331B78012B04D110
:1012D00027336B438269E318DA6139006048FFF70E
:1012E000C7FD0028BAD00D236B43E3183C33FF330E
:1012F0001B78012BB2D127336B438269E3181A6242
:10130000ACE70D236B43E3183933FF331B78012B14
:1013100000D0E6E627336B438269E318D2B2DA6085
:10132000DFE631004F48FFF7A3FD28236B43E318A6
:10133000002829D082699A70002D08D131004A48CE
:10134000FFF796FD1423002800D08369E362029B17
:10135000022B1FD1019E31004448FFF789FD002870
:1013600014D08269D3B2022B10D12827551E6F43A7
:10137000E219137431003E48FFF77AFD002801D0CE
:1013800083693B55012330E69870D5E73668002E17
:10139000E1D1F7E7002705993648FFF769FD0028F6
:1013A0002ED0002F2CD13D008668002E28D0310091
:1013B0002B48FFF75DFD00280BD063191A0050324F
:1013C000FF321278012A04D102326A439B188269E3
:1013D0005A6531002848FFF74BFD00280BD06319F0
:1013E0001A004F32FF321278012A04D102326A43C6
:1013F0009B1882691A6502350A2D01D03668D4E738
:1014000005991E48FFF734FD051E22D0002F20D17C
:1014100001001B48FFF72CFD00280AD05A23FF3398
:10142000E35C012B05D1C3685A1E93412200793237
:10143000137029001348FFF71BFD002809D0AC23C7
:101440005B00E35C012B04D1C36878345A1E9341DE
:101450002370380009B0F0BDB66E0010BE6E0010EB
:10146000C66E0010186F0010D26E0010DA6E0010F9
:101470001D6F0010206F00102A6F0010306F0010D9
:101480003C6F0010486F001070B50C00010016484A
:10149000FFF7EEFC051E24D001001448FFF7E8FC1E
:1014A000002806D0E378012B03D10069FFF772FC16
:1014B000207029000E48FFF7DBFC002806D02379B6
:1014C000012B03D10069FFF785FC607029000948F2
:1014D000FFF7CEFC002804D06379012B01D183698A
:1014E000A370002070BDC0465A6F00105D6F0010E1
:1014F000686F0010706F001070B504000D0086B0AA
:101500000021142201A805F0BAFA29002000FFF7F3
:10151000AFFC0400002C18D021001C48FFF7A8FCE9
:101520000028F7D00569002D0AD0194E2900300097
:1015300005F076FB00280BD1310001A805F07AFBFD
:10154000210001A8FFF794FC0400200006B070BD44
:10155000104E2900300005F063FB0028ECD0290074
:101560000D4805F05DFB0028E6D00C4E2900300048
:1015700005F056FB0028DFD02900094805F050FB94
:101580000028DDD121000748C1E7C046C26F001026
:10159000EA6F0010D36F0010DA6F0010E26F0010D6
:1015A000C76F0010CD6F001010B5FFF761FC01246C
:1015B000002809D08168002906D00448FFF758FCAC
:1015C000002801D0C468E4B2200010BD746F001080
:1015D000F7B5040000200D00FFF7DAF92000FFF74F
:1015E0003FFB071E4AD001002648FFF741FC041EBE
:1015F00006D1012676423800FFF7E4F93000FEBD3F
:1016000001002148FFF778FF210006001E48FFF780
:10161000CBFF0090002E2BD03069FFF7BBFB6B4651
:1016200000261B782870EB7021001848FFF764FF34
:10163000210000901548FFF7B7FF009B0190002B99
:1016400019D01869FFF7C6FB6B461B7968702B71C0
:1016500021000F48FFF750FF210000900C48FFF7D2
:10166000A3FF009B002BC4D09B696871AB70C2E7DD
:1016700001267642D8E701267642E9E7052676423A
:10168000BCE7C0465A6F00105D6F0010686F001015
:10169000706F0010F0B5050085B000200C00FFF75A
:1016A00077F92800FFF7DCFA0190002800D1A8E1C3
:1016B0000100D648FFF7DCFB051E00D161E1D44FE5
:1016C00001003800FFF718FF290006003800FFF777
:1016D0006BFF002E00D134E19A22B3695200DBB2D5
:1016E0002370A0542200283213704223FF33E054A9
:1016F0000023C84F290038000093FFF7FDFE2900A2
:1017000006003800FFF750FF002E00D11CE1F368FF
:101710005A1E93413622DBB2FF326370A05422007E
:1017200029321370A1235B00E054BB4F290038001D
:10173000FFF7E2FE290006003800FFF735FF002E14
:1017400000D105E1F3685A1E93413822DBB2FF3223
:101750002372A054220030321370A2235B00E054A5
:10176000AE4F29003800FFF7C7FE290006003800F9
:10177000FFF71AFF002E00D1EEE09C22B369520061
:10178000DBB2E360A05463634623FF33E054A44F0D
:1017900029003800FFF7B0FE290006003800FFF7E7
:1017A00003FF002E00D1DBE0B369621DDBB2D3770B
:1017B0003E22FF32A05422004C321370A522520068
:1017C000A054A21DD3779F225200A05422004D3274
:1017D00013704C22FF32A054E21DD3774022FF3217
:1017E000A05422004E321370A6235B00E0548D4EAD
:1017F00029003000FFF780FE290007003000FFF7C6
:10180000D3FE002F00D1AFE0FB685A1E93412200A7
:10181000DBB20832D377A0225200A05422004F320C
:1018200013704E23FF33E05401997F48FFF720FBEC
:101830000600002F00D1A4E03A220123FF32A35476
:10184000D218A3543C22FF32A354D218A35402232B
:10185000764FFF330A32A35202320100A3523800FE
:10186000FFF74AFE310005003800FFF79DFE0390A8
:10187000002D00D17CE0AB6902936D4F3100380040
:10188000FFF73AFE310005003800FFF78DFE002D0E
:1018900000D172E0AD692200210023005B323531B6
:1018A0007C33FF32FF31029E5D601E606E46367BE8
:1018B00008331670507002328B42F4D101995D48A2
:1018C000FFF7D6FA061E69D05B4F01003800FFF71C
:1018D00013FE310005003800FFF766FE0390002D6F
:1018E00053D0AB690293524F31003800FFF704FE2A
:1018F000310005003800FFF757FE002D4AD0AD69D2
:101900002200230021004F325033FF327831029EF3
:101910005D601E606E46367B083350701670023272
:101920009942F4D101994548FFF7A2FA051E39D131
:1019300001235B4200930198FFF744F8009805B03B
:10194000F0BD01235B42D4E601235B420093ECE649
:1019500001235B42009303E701235B42009316E7F8
:1019600001235B42009342E701235B4200935BE764
:1019700001235B42029500937FE701235B420093C2
:1019800089E701235B42009398E701235B420295BC
:101990000093A8E701235B420093B1E701235B4278
:1019A0000093BFE7264F01003800FFF7A5FD29008F
:1019B00006003800FFF7F8FD002E1ED0F3685A1E0F
:1019C0009341220078321370AC235B00E0541D4F2A
:1019D00029003800FFF790FD290006003800FFF7C6
:1019E000E3FD002EA4D0F3685A1E93412200793201
:1019F00013705A23FF33E0549DE701235B420093A9
:101A0000E5E705235B42009398E7C0467C6F001032
:101A10001D6F0010BA6F0010F06E0010E66E00101F
:101A20000E6F0010076F0010A76E0010BE6E001042
:101A3000C66E0010206F00102A6F0010306F00106B
:101A4000486F00103C6F0010DC23F0B59B0585B09B
:101A50000093002302AD019502901848184C0668C7
:101A60006B60306A0768002F07DBA34203D10120B7
:101A7000404205B0F0BD0133F4E7A342F7D06B4616
:101A8000C3600123B83683603368C018002306683A
:101A9000002E03DAA342EAD00133F8E7A342E6D0EE
:101AA000A02300981B06984201D00098E1E7029B12
:101AB000002013606B680B60DBE7C04618090E0856
:101AC000983A00000122F0B50024184B0668196806
:101AD00032400B6AB8310D6815495D191F68002F37
:101AE00006DB8C4202D101204042F0BD0134F5E713
:101AF0008C42F8D0002A00D106000120DE609860F8
:101B000000202C68002C03DA8842ECD00130F8E782
:101B10008842E8D0DB68002A00D11B68A0220020A0
:101B200012069342E1D01800DFE7C04618090E08FC
:101B3000983A00000A4B37B51B780500013B00249A
:101B4000012B05D8074B01A80193FFF7BBFF040049
:101B5000002D02D0280003F04BFE20003EBDC04601
:101B6000A40B0E080101013A07B5034B01A801932C
:101B7000FFF7A8FF0EBDC0460101003210B5FFF708
:101B8000F3FF002801D105F057F910BD70B504002E
:101B90001000FFF7CFFF174B1B68002B23DA8023C1
:101BA000154A16499B00D1501549164E0968080080
:101BB00098300D680068281805682E40124D35438E
:101BC0000560080015009030096800681E00F13BB0
:101BD0000918FF3B0A681A42FCD0012003F008FEF6
:101BE000AC51FFF7CBFF200004F01AFD002004F0F9
:101BF00023FBFBE7000126400000204000400016C8
:101C000018090E08FCFF00000300FA05014B1860DC
:101C10007047C04618090E08044B1B681A00B432FE
:101C200012881B6A5043C0187047C04618090E0836
:101C30001D4B98420FD010D840282FD005D800282F
:101C400030D0102828D019481EE0802828D08023C2
:101C50005B009842F7D1144816E0154B984214D017
:101C600008D8A0231B0698421CD0124B9842EAD1F8
:101C7000A0200BE0104B98420AD0104B984209D09C
:101C80000F4B9842DFD10F487047A420C003FBE7F9
:101C90000D48F9E70D48F7E70D48F5E70D48F3E77C
:101CA0000D48F1E70020EFE706005200FF00520068
:101CB000010000F0090000A0040000F0050000F0A1
:101CC000030000F001005200020052000300520025
:101CD00001005000020050000500520010B5002025
:101CE000FFF79AFF0A4B1C682300B8331B68C01823
:101CF0000368002B0ADB074B1868FFF799FF0122E6
:101D000063689A609A68002AFCD110BD0248FCE71B
:101D100018090E0810060E08020050000E4B10B5F0
:101D20001B689C695B69001BC0090001C0181F2368
:101D30001A40032907D8C9008B408A4004689C4395
:101D40002243026010BD0439C9008B408A404468B8
:101D50009C4322434260F5E718090E08F7B50126B7
:101D600037008F4033408B4005681400BD430F2778
:101D70002B4303600A4B08AA12781B680192813337
:101D80001D788E0045192B683C401A003B00B3407B
:101D9000B4409A4314432C60019AFFF7BFFFF7BD8C
:101DA00018090E08064B1B68B8331B68C3181B685C
:101DB000002B03DA89B24160002070470148FCE73C
:101DC00018090E0801008A000368002B04DA89B2A2
:101DD000C2608160002070470048FCE701008A0073
:101DE000064B1B68B8331B68C3181B68002B03DA4B
:101DF000C36800200B6070470148FCE718090E0813
:101E000001008A00024B1A68002A00D1186070474E
:101E100024060E08F0B52C246043154C1F002468DE
:101E20001D0A2018FF2425402740124C1B0C266851
:101E30000760346A45608360B436368877433F195B
:101E400007612F0080376D017F01E71964190A4D82
:101E500047611F043B436419236000238361059B92
:101E6000C2610162002B01D01B888381F0BDC04696
:101E700024060E0818090E0808100000F0B5836843
:101E800085B002AD2B80154B02681B68066A1B8F5C
:101E9000476A9B186B8043680095826AC16A040098
:101EA00003930369C068FFF7B5FF00213B000A00F8
:101EB00000913000FFF7AEFF216B280003F04EFCCD
:101EC0000022AB5E002B06DB1F2213401E3A9A4015
:101ED0001300034A136005B0F0BDC04618090E0890
:101EE00000E100E0F7B52C25134C684326686943F0
:101EF0003418256901937118002D19D088690028BC
:101F000018D12E68002E15DA6768012426004B6868
:101F10009E40B44613689EB263461B041E4316607F
:101F2000EA608C61BC40019BA4B24B62AC60FEBD18
:101F30000248FCE70248FAE724060E0804028A0079
:101F400007028A0073B5002642690400D56801962D
:101F50002B0CB34221D01B0413601368194B00698A
:101F60001B68B8331B68C3181B68B34215DA01A994
:101F7000FFF736FFB0420CD10198E26903681E0CEE
:101F8000DBB29A4205D9226A9B009B58002B00D0F5
:101F9000984731002069FFF705FFADB2002D09D049
:101FA00063691D6000251B68636AAB4205D09847D2
:101FB0006562A56163691B6873BDA36A002BF8D0D5
:101FC0009847F6E718090E082C2310B54343034A37
:101FD0001068C018FFF7B6FF10BDC04624060E08F3
:101FE000F8B5194B0F001B681A0033321278824281
:101FF00027D9002925D01F250A68154021D11900AD
:10200000B4310C88114E60431C6AD20804192900AF
:102010007868346004F033FD29002000FFF7C2FE29
:102020003A0029003068FFF7CFFE041E07D10100F7
:102030003068FFF7B7FE03002000002B00D00448F3
:10204000F8BD0448FCE7C04618090E0828060E082B
:1020500001018A0003018A0010B5002A0DD1002970
:1020600014D10B4B1A681300B4331B885843136AFE
:10207000C018084B1860080010BD002906D0064B98
:10208000196019005A60FFF7ABFFF5E70348F3E763
:1020900018090E0828060E080400000803018A002B
:1020A000F7B5184F04003B680191DE68336883423E
:1020B00026D90025A94202D1FEF70FFA050038689B
:1020C0000368002B1ADA1F2201232240934064097F
:1020D0007268A4001419226813420DD09A4322603A
:1020E00000240021FFF75EFE019B002B02D1280097
:1020F000FEF7F7F92000FEBD034CF2E7034CF3E7CF
:10210000034CF7E728060E08020188000301880047
:1021100004018A000A4B1B68DB681A6882420DD9E9
:1021200059681F23420918401E3B834092005058B3
:102130001840431E9841034BC01870470248FCE703
:1021400028060E080001880004018A0070B50F4BB4
:102150001B683F331A78431E591E8B419A4213D98C
:102160000B4B0C4D8000C41863590B4A01201A40D8
:1021700080239B051343635103F054FB00206359F4
:102180005B005B08635170BD0448FCE718090E084A
:1021900000002640FC050000FFFFFFCF01004A00C1
:1021A000F8B59621002003F081FB4C4E4C4C33686F
:1021B0001A0040321278002A00D188E00027E0217E
:1021C00030203D0089006258824362501A008C32F0
:1021D0001968126843488A18116801401160882202
:1021E00094469C446246802019681268400489180D
:1021F0000A681202120A02430A6062461B681268E9
:1022000038499B181A680A401A6004F04DF933687F
:102210003F331B78002B03D00120FFF797FF070007
:10222000002F00D0304D33683F331B78012B03D98A
:102230000220FFF78BFF0700002F00D02B4D00215D
:10224000012002F0A3FE002800D0294DE0270F2333
:10225000BF00E059184012D102F0C0FE1223FF3334
:1022600098420CD1336840331B78002B32D00F23B7
:10227000E2599A430E3B1343E35104F015F9B1219F
:10228000C90063581B4A1A4080239B051343B022A0
:1022900063500021D200A35808005B005B08A350E4
:1022A000154AA3585B005B08A35002F06FFE00289C
:1022B00000D0124D336840331B78002B0CD0E02245
:1022C0000F219200A3588B43A3502800F8BD0C4F58
:1022D0000C4D7BE70B4DD0E70A4DF6E718090E08C9
:1022E00000002640FF00FFFF2F0F1A012E0F1A01DA
:1022F0004E0F1A01FFFFFFCF8C0500004F0F1A0190
:1023000001004A000F0F1A01BE4BF0B51B6887B0E1
:102310001A00B4321188186A8A001218D068029024
:102320000088059002984088009002988768C068ED
:10233000049005980138072809D804F0A1F9620033
:1023400026004500D4087F00C70052027100AE4C41
:102350006A46029B928A85211A806A4680201288EA
:102360005C605A80049A9F60DA60A64B49011B6842
:1023700040031A6AB43350501888515880008018AE
:102380000021FFF70FFD07B0F0BD009A9F4BD20070
:1023900099184968049C0C4001D001F0A7F8481C2A
:1023A00001D101F0A6F800981F2801D901F0A4F886
:1023B000D258002A01D101F0A2F8136839430B402A
:1023C00004990B431360C3E73C00009A8F4BD20083
:1023D000991849680C4001D001F094F8481C01D1CB
:1023E00001F093F800981F2801D901F091F8D25814
:1023F000002A01D101F08FF813680B403B431360B2
:10240000A6E7009B1F2B01D901F088F8DA007F4B6B
:10241000D358002B01D101F084F81F68002497E7FE
:10242000022F01D001F080F8049C0A3C63425C4119
:10243000774B64421C40774BE41889E7002F01D1A9
:1024400001F075F8744CF0223900200004F00EFB06
:1024500003F004FA002810D0FFF7A2FE6E4801F046
:1024600001FC6E4B04001A78002A00D070E70028A7
:1024700000D06DE701321A706AE7684B1B78002BB9
:10248000ECD1E378002BE7D0E379002BE4D055348E
:10249000247803F0D1F90028DED1614B614A9958C4
:1024A000002908DAC02149005958C907D4D49958DD
:1024B0004900490899508021985809060143012094
:1024C0009950995881430C439C50C5E70098662861
:1024D00035D017D82F2800D173E106D82C285BD02F
:1024E0002D2800D1D3E0484C32E7009B302B00D19F
:1024F0006CE1322BF7D13A893888796802F0ECFF29
:10250000040025E700986D2800D13AE107D8672834
:1025100033D06C28E7D103F0EFFB002418E7009AD2
:102520006E2A00D138E16F2ADDD13878072801D929
:1025300001F000F8797803F0FDFB002408E7384B40
:102540005A68002F10D1384911401B220A435A60A3
:102550005968364A1143596059681143596059689E
:102560000A435A600024F3E6E82131488901024019
:10257000114359605A680240F3E703234B439B1809
:102580001A68002AFCDA80220024D96852050A431E
:10259000DA605C605B68DBE60024B126254BF60060
:1025A0001C80254B1C80174B1B683F331B789C42BB
:1025B00001D90024CCE61A4D002C1ED1B023DB003B
:1025C000EB58DB0F17D0200002F008FD022854D191
:1025D000002C35D18020AB59184A80051340184390
:1025E000A8510021200002F0D1FC0123A340114A90
:1025F00011880B4313800134D5E723008033FF3368
:102600009B00DDE718090E08FF0F1A011C090E08D0
:1026100007F0E5FEF90F1A0130060E0820070E0834
:10262000000026400C0500000000FC0F003A02806C
:10263000FF00FC0F2C060E082E060E08FFFFFFCF32
:102640000325A14AA300A1499B185A58120F2A42F8
:1026500004D05A58120F2A40012A06D10122A24062
:1026600010009B4D2A88104328805A5899480240F0
:102670008020800510435850B3E7002CBBD1AB59E4
:10268000944A1A4080239B051343AB51B3E7924B06
:102690008D4E1C88002C13D1B023DB00F358002B87
:1026A00000DB55E6B2228D4BD200012155E0013D01
:1026B000B3580B40032B08D1002D49D1884C47E675
:1026C000A622864DD2000321F2E7B358002DEED1A9
:1026D000834C3DE60123019A93409BB203937E4BCA
:1026E000039A1B88134210D00221019802F04EFC7D
:1026F000019B002B14D1B223DB000121F2580A42C6
:1027000001D000F04DFF002D1AD1019B0133019340
:10271000744B019A1B683F331B789A42DAD917E64B
:10272000019A019B9032FF32013B92000120B15887
:10273000014201D000F042FF002DE6D0013DF5E757
:10274000013DDAE7C022195892050A431A50DCE726
:102750000023634C0193DBE7013BB058084203D1EF
:10276000002BF9D15E4CF3E5002B08D0B122C02339
:10277000D200B1589B050B43B3500024E8E5584CF8
:10278000E6E547331B78002B04D04F4A93695B0082
:102790005B0893610024DBE547334B4A1B785169A2
:1027A000002B08D08023DB05194204D0002F04D071
:1027B00091690B4393610024CAE593694A490B4030
:1027C000F8E7380002F03EFF0400C1E53E49474A01
:1027D000B8058B58800D9B0A9B0203438B50002445
:1027E000B6E5434A1278002A01D100F0A6FE00980F
:1027F0000838632801D900F0A3FE03F041FFE80088
:10280000F4000601250131013D014C015801A106EA
:10281000640170017E019601D6011802C0025F03B7
:1028200078039103AA03BE03D703E503F303070468
:102830001B042904370450045F046D047B05A405C0
:10284000CE05FF055406A106A1066D06A106A10648
:10285000A106A106A106A106A106A106A106A10640
:10286000A106A106A106A106A106A106A106A10630
:10287000A106A106A106A106A106A106A106A10620
:10288000A106A106A106A106A106A106A106A10610
:10289000A106A106A106A106A106A106A106A10600
:1028A000A106A106A106A106A106A106A106A106F0
:1028B000A106A106A106A106A106A106A1067B000C
:1028C0009B00BB00D100C04600002640FC05000074
:1028D0002E060E08FFFFFFCF2C060E0840420F0009
:1028E000FA0F1A0118090E08FFFFFFBF3C05000090
:1028F00020070E080122C84D6B78E91C01932B7943
:102900002E780393FBB22A706A70CB77002B0ED11E
:102910002A71280001F0A6F9041E00D118E56B46C3
:102920001B792E706B706B461B7B2B7110E500239F
:102930002B71EEE701210022B74D6B78281D019322
:102940002B792E780393FBB229706A70C377022B20
:102950000ED12971280001F085F9041E00D1F7E499
:102960006B461B792E706B706B461B7B2B71EFE4F3
:102970002A71EFE7A84D2B786E1D0193F37F280095
:10298000039301232B70F37701F06CF9041E00D13F
:10299000DEE46B461B792B706B461B7BF377D7E429
:1029A0009D4D2B786E1D0193F37F28000393012327
:1029B0002B700023F37701F055F9041E00D1C7E412
:1029C0006B461B792B706B461B7BF377C0E40023AF
:1029D000914D28006E796B7101F044F9041E00D10D
:1029E000B6E46E71B4E48C4D6B7A28000193002339
:1029F000AE6E6B72AB6601F035F9041E00D1A7E430
:102A00006B461B79AE666B72A2E4002F01D100F019
:102A10009AFD3F331B78BB4201D200F097FD0023A3
:102A20007D4D012F0BD1AE7AAB72280001F01AF95F
:102A3000041E00D18CE4012F04D1AE7288E4EE7A3A
:102A4000EB72F2E7EE7283E40123734D2800EE7916
:102A5000EB7101F007F9041E00D179E4EE7177E41F
:102A600000236D4D2800EE79EB7101F0FBF8041E98
:102A700000D16DE4EE716BE43B0067485A1E934150
:102A8000050055352E782B7001F0ECF8041E00D1AE
:102A90005EE42E705CE401235F48451CEE7FEB771B
:102AA00001F0E0F8041E00D152E4EE7750E4002378
:102AB0005948451CEE7FEB7701F0D4F8041E00D195
:102AC00046E4EE7744E40123534D28002E7A2B721E
:102AD00001F0C8F8041E00D13AE42E7238E4002355
:102AE0004D4D28002E7A2B7201F0BCF8041E01D146
:102AF000FFF72EFC2E72FFF72BFC4748FBB20500B8
:102B0000013B5A425341002456352E782B70037AEC
:102B1000A34201D1FFF71CFC01F0A4F8041E01D16F
:102B2000FFF716FC2E70FFF713FC052F01D900F0FC
:102B300010FD3800384D012303F098FD0316191CD1
:102B40001F226E7D6B75280001F08CF8041E01D1E8
:102B5000FFF7FEFB052F01D9FFF7FAFB380003F062
:102B600085FD1215181B1E21AE7DAB75EBE7EE7DC2
:102B7000EB75E8E72E7E2B76E5E76E7E6B76E2E777
:102B8000AE7EAB76DFE76E75FFF7E2FBAE75FFF763
:102B9000DFFBEE75FFF7DCFB2E76FFF7D9FB6E76D9
:102BA000FFF7D6FBAE76FFF7D3FB052F01D900F078
:102BB000D3FC38000023184D03F058FD0316191CF0
:102BC0001F226E7D6B75280001F04CF8041E01D1A8
:102BD000FFF7BEFB052F01D9FFF7BAFB380003F062
:102BE00045FD1215181D2023AE7DAB75EBE7EE7D7C
:102BF000EB75E8E72E7E2B76E5E76E7E6B76E2E7F7
:102C0000AE7EAB76DFE76E75FFF7A2FBAE75FFF722
:102C10009FFBEE75FFF79CFB30060E082E76FFF744
:102C200097FB6E76FFF794FBAE76FFF791FB386863
:102C3000052801D900F093FCDA4C3B79220003F01F
:102C400015FD032E3C4A58662600A532A836157895
:102C50001370326818000192627DA634039202F06C
:102C600083FB2378D049D84003F014FD039B3060E8
:102C70001C1E01D1FFF76CFBCA4E300000F0F2FFC2
:102C8000041E01D1FFF764FB3868052801D9FFF75E
:102C90005FFB330003F0EAFC4950575E656C260089
:102CA000AC32B03615781370326818000192A27DEC
:102CB000AD34039202F058FBD3E72600B432B836A5
:102CC00015781370326818000192E27DB5340392D2
:102CD00002F04AFBC5E72600BC32C03615781370F7
:102CE000326818000192227EBD34039202F03CFB50
:102CF000B7E72600C432C83615781370326818005A
:102D00000192627EC534039202F02EFBA9E72600F1
:102D1000CC32D03615781370326818000192A27E3A
:102D2000CD34039202F020FB9BE7A5331D70019B7D
:102D3000A8363360FFF70CFBAC331D70019BB03637
:102D40003360FFF705FBB4331D70019BB836336069
:102D5000FFF7FEFABC331D70019BC0363360FFF7EE
:102D6000F7FAC4331D70019BC8363360FFF7F0FAE1
:102D7000CC331D70019BD0363360FFF7E9FA386819
:102D8000052801D900F0EEFB864B3A791C0003F0D0
:102D90006DFC032E39444F5A1D00A6342178227051
:102DA00001915A7DA8352E680392A533187802F058
:102DB000DBFA23787C49D84003F06CFC039B286045
:102DC0001C1E01D1FFF7C4FA764D280000F04AFF1F
:102DD000041E01D1FFF7BCFA3868052801D9FFF7B6
:102DE000B7FA2B0003F042FC3A424A525A621D00E5
:102DF000AD342178227001919A7DB0352E6803920E
:102E0000AC33D3E71D00B534217822700191DA7D0F
:102E1000B8352E680392B433C8E71D00BD3421785D
:102E2000227001911A7EC0352E680392BC33BDE733
:102E30001D00C5342178227001915A7EC8352E6854
:102E40000392C433B2E71D00CD3421782270019182
:102E50009A7ED0352E680392CC33A7E76A46127962
:102E6000A633A8351A702E60FFF772FA6A461279F7
:102E7000AD33B0351A702E60FFF76AFA6A461279E0
:102E8000B533B8351A702E60FFF762FA6A461279C8
:102E9000BD33C0351A702E60FFF75AFA6A461279B0
:102EA000C533C8351A702E60FFF752FA6A46127998
:102EB000CD33D0351A702E60FFF74AFA394D2E0007
:102EC000AB7CA2360193337828000393012337703B
:102ED000AB7400F0C7FE041E01D1FFF739FA6B4650
:102EE0001B7B33706B461B79AB74FFF731FA2D4DAA
:102EF0002E00A336337828000193EB7C37700393C0
:102F00000123EB7400F0AEFE041E01D1FFF720FA9E
:102F10006B461B7933706B461B7BEB74FFF718FA1B
:102F2000204D2E002B7FD636019333782800039353
:102F3000012337702B7700F095FE041E01D1FFF7B7
:102F400007FA6B461B7B33706B461B792B77FFF7B9
:102F5000FFF9144800240500D8352E882F80837F80
:102F6000A34201D1FFF7F4F900F07CFE041E01D169
:102F7000FFF7EEF92E80FFF7EBF90A480024050071
:102F8000DA352E782F70837FA34201D1FFF7E0F965
:102F900000F068FE041E01D1FFF7DAF92E70FFF78A
:102FA000D7F9C04630060E0840420F000123CF4D2E
:102FB0002800AE7FAB7700F055FE041E01D1FFF76D
:102FC000C7F9AE77FFF7C4F90023C84D2800AE7FDC
:102FD000AB7700F047FE041E01D1FFF7B9F9AE77D9
:102FE000FFF7B6F9C14800240500D4352E782F70BC
:102FF000C37EA34201D1FFF7ABF900F033FE041EFC
:1030000001D1FFF7A5F92E70FFF7A2F9B748002408
:103010000500D5352E782F70C37EA34201D1FFF76E
:1030200097F900F01FFE041E01D1FFF791F92E70F1
:10303000FFF78EF90123AD4D2800EE7EEB7600F010
:1030400011FE041E01D1FFF783F9EE76FFF780F938
:103050000023A64D2800EE7EEB7600F003FE041E52
:1030600001D1FFF775F9EE76FFF772F99F4D2E004B
:103070006B7FD73601933378280003930123377091
:103080006B7700F0EFFD041E01D1FFF761F96B468D
:103090001B7B33706B461B796B77FFF759F9934BAA
:1030A0005C79002C00D060E23A689A627A68DA6251
:1030B000BA681A63FA685A63FFF74AF901238B4D1D
:1030C00028006E796B7100F0CDFD041E01D1FFF771
:1030D0003FF96E71FFF73CF93868052800D947E2DF
:1030E000824B03F0C3FA031B222930371A00012157
:1030F00096321E7B15881973B9881800118000F06C
:10310000B1FD041E38682CD1052801D9FFF720F93C
:10311000764D03F0ABFA4D6A89A9BFD51A0001219B
:1031200098325E7B15885973E6E71A0001219A32BE
:103130009E7B15889973DFE71A0001219C32DE7BA4
:103140001588D973D8E71A0001219E321E7C158894
:103150001974D1E71A000121A0325E7C15885974D8
:10316000CAE7052800D906E2604B03F07FFA03089E
:103170000D12171C1E7396331D80FFF7E9F85E735E
:1031800098331D80FFF7E4F89E739A331D80FFF794
:10319000DFF8DE739C331D80FFF7DAF81E749E3370
:1031A0001D80FFF7D5F85E74A0331D80FFF7D0F8BF
:1031B0006B7A002B03D0280000F0A0FCA8662B003F
:1031C000A5331878002801D0FFF7C2F802F0CCF838
:1031D0002B00A6331B784649A83599404B08181890
:1031E00003F058FA2860FFF7B3F8AB7A002B05D04C
:1031F0002900012000F0A0FC2B1DD8672B00A5336F
:103200001878012801D0FFF7A3F802F0ADF82B00E1
:10321000A6331B783649A83599404B08181803F097
:1032200039FA2860FFF794F8EB7A002B06D02900D2
:10323000022000F081FC2B008C3318602B00A5339A
:103240001878022801D0FFF783F802F08DF82B00E0
:10325000A6331B782649A83599404B08181803F067
:1032600019FA2860FFF774F82B00A53318780328A3
:1032700001D0FFF76DF802F077F82B00A6331B782A
:103280001B49A83599404B08181803F003FA286029
:10329000FFF75EF82B00A5331878042801D0FFF75C
:1032A00057F802F061F82B00A6331B781049A835B7
:1032B00099404B08181803F0EDF92860FFF748F81B
:1032C0002B00A5331878052801D0FFF741F802F04C
:1032D0004BF82B00A6331B780549A83599404B08BD
:1032E000181803F0D7F92860FFF732F830060E08F7
:1032F00040420F003A68BC4B0024DA661A00B988D5
:10330000703211801A00B979723211701A00F9798D
:10331000733211701A003989743211801A00B97A27
:10332000763211701A00F97A773211701A00B98961
:10333000783211801A00B97B7A3211703A8A7C3364
:103340001A80FFF705F8A84D6E7A002E00D015E11F
:10335000012328006B7200F0D1FBA866280000F062
:1033600081FC041E03D0AE666E72FEF7F1FF2B00E7
:10337000A5331B78002B01D0FEF7EAFF01F0F4FF24
:103380002B00A6331B789949A83599404B0818188B
:1033900003F080F92860FEF7DBFF3A68002A00D1CD
:1033A000EFE03F331B789A4200D9EDE07B681E784E
:1033B0005D789C78D87819798B4B012A10D11A0046
:1033C000843216701A00853215701A008632147015
:1033D0001A0087321070883319700024FEF7B8FF86
:1033E0001A00903216701A00913215701A0092323B
:1033F00014701A00933210709433EDE7012F06D148
:10340000794A927A002A09D0794CFEF7A1FF022F5F
:1034100004D1754AD27A002A00D0B8E03F331B7835
:10342000BB4200D2B6E0002F00D1B6E06E4D2900BD
:10343000012F12D1380000F07FFB2B1DD867AF722F
:10344000280000F00FFC041E16D00023012F0DD120
:103450002A1DD367AB72FEF77BFF022000F06CFBE6
:103460002B008C3318600123EB72E9E72A008C32C1
:103470001360EB72FEF76CFF2B00A5331878431E28
:10348000012B01D9FEF764FF01F06EFF2B00A6337C
:103490001B785649A83599404B08181803F0FAF8DC
:1034A0002860FEF755FF504D2E002B7DA43601936A
:1034B000337828000393012337702B7500F0D2FB7B
:1034C000041E01D1FEF744FF6B461B7B33706B4635
:1034D0001B792B75FEF73CFF0122434B00249A71A8
:1034E0009F64FEF735FF0024FEF732FF414CFEF7E4
:1034F0002FFF404CFEF72CFF3E4CFEF729FF3D4CC2
:10350000FEF726FF3B4CFEF723FF3A4CFEF720FF69
:10351000384CFEF71DFF374CFEF71AFF354CFEF70F
:1035200017FF344CFEF714FF334CFEF711FF334CFA
:10353000FEF70EFF314CFEF70BFF2E4CFEF708FF97
:103540002C4CFEF705FF2E4CFEF702FF2C4CFEF72D
:10355000FFFE284CFEF7FCFE264CFEF7F9FE254C3C
:10356000FEF7F6FE234CFEF7F3FE264CFEF7F0FEC8
:10357000204CFEF7EDFE1F4CFEF7EAFE224CFEF754
:10358000E7FE1F4CFEF7E4FE1D4CFEF7E1FE184C73
:10359000FEF7DEFE164CFEF7DBFE154CFEF7D8FEFE
:1035A000002D01D1FFF7B1F8B122C023D200B158EC
:1035B0009B050B43B3500024FFF7A7F8002D01D162
:1035C000FFF7A3F8C020114A9B001488039AC0009B
:1035D00014400F4A9B18002C01D1FFF7B3F81A587A
:1035E0000C490A401A50E6E730060E0840420F0028
:1035F0002D0F1A01FF0F1A01F90F1A01FE0F1A0100
:10360000BD0F1A01590F1A013E0F1A012E060E089E
:1036100000002640FFFFFFCF73B520220020344B6F
:10362000D100591A0531FF31013A0860002AF7D15B
:1036300030491960304999603049196130499961C0
:1036400030491962304999623049196330499963A8
:10365000304919643049096808004030007804286E
:1036600000D92E4A9A640022052800D92C4A1A65EE
:103670004A6801241000083098652A486442186698
:103680002948DC67586629489866294818672948F8
:1036900012189A6700221500981806000832803622
:1036A000843035600460802AF6D185220B6A52018D
:1036B0009B18802252039A6004236A4613800B8F62
:1036C000684605331C495380019502F047F80028ED
:1036D00000D001BE6B4600229B5E002B06DB1F2242
:1036E00013401E3A9A401300144A136073BDC0463B
:1036F0001C090E0808002640000726400407264043
:1037000008072640100726408403264088032640E9
:103710008C0326409003264018090E089403264087
:10372000980326400400264000FF03F04805264089
:103730004405264060F000000923001000E100E08D
:10374000064A030012680020403212789A4204D9D7
:10375000E033034A9B009858C00F704718090E08C1
:103760000000264070B50F4B1B683F331A78431E8C
:10377000591E8B419A4213D90B4B0C4D8000C41833
:1037800063590B4A01201A4080239B051343635160
:1037900002F048F8002063595B005B08635170BD7C
:1037A0000448FCE718090E0800002640FC0500004C
:1037B000FFFFFFCF01004A00094B1B6840331B7815
:1037C00083420AD9E022074B8000C0189200835838
:1037D0005B005B088350002070470348FCE7C0464D
:1037E00018090E080000264001004A0010B50B4BD6
:1037F0001B6840331B7883420DD90F290BD8E02278
:103800000F24074B8000C01892008358A34319432C
:103810008150002010BD0348FCE7C04618090E087F
:103820000000264001004A00022817D006D80028D0
:1038300027D0012810D0022040420CE01223FF3391
:1038400098420DD01423FF3398420CD0033B98428A
:10385000F1D1FA20C0017047886CFCE7886AFAE76A
:1038600080200002F7E7084B1B68413318780138C5
:10387000431E9841054B4042184080231B02C0184C
:10388000E9E70348E7E7C04618090E08FE7FFFFF97
:1038900000127A0002235B4210B51360314B140012
:1038A0001B681A003E321278824258D9052856D831
:1038B00002F0DCFE03192E43494F0B7B002B4ED048
:1038C0004B7A002B08D00B007A331B78022B03D0E5
:1038D0008B6E2360002010BD0B0096331888FFF715
:1038E000A3FF2060F6E74A7B002A38D03F331B78DD
:1038F000002B0AD08B7A002B07D00B0088331B7863
:10390000022B02D00431CB6FE3E70B009833E5E7DD
:103910008A7B002A23D03F331B78012B0AD9CB7A2C
:10392000002B07D00B0094331B78022B02D08C3174
:103930000B68CEE70B009A33D0E7CB7B002B0ED081
:103940000B009C33CAE70B7C002B08D00B009E3386
:10395000C4E74B7C002B02D00B00A033BEE702482B
:10396000B9E7C04618090E08FE0F1A01032819D03E
:1039700004D801280FD028D948790DE01223FF334D
:10398000984214D01423FF33984212D0033B98423C
:103990000BD00F4805E08879434258410C4B404218
:1039A000184070470231C87FF6E7C879F4E7087A13
:1039B000F2E70131CB7F002BEBD0064B1B68413384
:1039C00018780138431E9841E8E70020E9E7C0462F
:1039D000FE0F1A0118090E0810B51B4B1B683E3369
:1039E0001B7883422DD905282BD802F03FFE030C0B
:1039F00012181E240B7B002B23D00B009633188843
:103A0000FFF7B4FF10BD4B7B002B1AD00B0098338F
:103A1000F5E78B7B002B14D00B009A33EFE7CB7BC1
:103A2000002B0ED00B009C33E9E70B7C002B08D059
:103A30000B009E33E3E74B7C002B02D00B00A0333E
:103A4000DDE70248DEE7C04618090E08FE0F1A013E
:103A50000300A8331B6810B50400002B02D00848EF
:103A6000584310BD0300A533187801F07DFC020017
:103A70000120A6342378984040088018D840F0E709
:103A800040420F0010B5040001F0F8FB002801D0FF
:103A9000044810BD0449200001F0CCFC0028F8D0F7
:103AA000F6E7C046FD0F1A011027000070B50500AB
:103AB0001400FFF79BFE002818D10D4B1B68403304
:103AC0001B789D4212D2032C10D8E021AB00302588
:103AD000084A89009B185A582401AA4322435A5085
:103AE00080225C58120622435A5070BD0248FCE7FF
:103AF00018090E0800002640FD0F1A01030010B53A
:103B00000400963318882100FFF78EFE0300002082
:103B10009A1C0FD022007032118881420AD0E06EC8
:103B20007334584302F0B6FD21784B1E99410131A0
:103B300002F0B0FD10BD000070B500250C00A842D9
:103B400021D01B4B1B683F331B7883421BD30128BA
:103B50001BD10B0098331888FFF766FE2300220064
:103B6000843385321B78117886342578821C1BD0EB
:103B700000291BD0002D06D0584302F08BFD2900F0
:103B800002F088FD0500280070BD0228FBD10B0063
:103B90009A331888FFF748FE2300220090339132B1
:103BA0001B7811789234E0E70025ECE70D00EAE796
:103BB00018090E08F8B504000F00012932D10300DE
:103BC000817A427B04309833C66F83301B88057836
:103BD0000020814225D0824231D018002100FFF719
:103BE00023FE184BC018184B984228D86B1E9D41D5
:103BF000164B6D421D40164BED182379002B1AD041
:103C0000AE421CD3134B9E4219D821003800FFF757
:103C100093FF301A464270410F4E40420F4B3040E6
:103C2000C018F8BD0300C17A827B9A338C301B88A0
:103C30000668C579CCE7AE4201D3094BE3E70748F4
:103C4000EFE7C04600F7C2FF00879303C863E3FFB6
:103C500020BCBE0080F0FA0202F0E5FEFE0F1A0161
:103C600080D1F008F0B504008FB0002801D100F039
:103C7000E0FFA621C44BC9005A58D24392071ED078
:103C80005B584379002B1AD0C04A836A9B18C04AFC
:103C9000934201D900F0D0FFC36A013B632B01D9E5
:103CA00000F0CAFF036BBB4A013B934201D900F00D
:103CB000C3FF436B013B934201D900F0BDFFA379E1
:103CC000002B0ED02279A36C002A00D105E1B24A64
:103CD000934201D900F0B3FFE36C002B01D100F057
:103CE000AEFF237B0293002B0FD0AC4B1B683E33FF
:103CF0001B78002B09D02300963318882100FFF78A
:103D000035FE002801D000F09DFF637B0393002B5C
:103D10000FD0A24B1B683E331B78012B09D923001F
:103D2000983318882100FFF721FE002801D000F009
:103D30008CFFA37B0493002B0FD0984B1B683E3362
:103D40001B78022B09D923009A3318882100FFF72A
:103D50000DFE002801D000F07BFFE37B0593002BD4
:103D60000FD08E4B1B683E331B78032B09D92300E1
:103D70009C3318882100FFF7F9FD002801D000F0DE
:103D80006AFF237C0693002B0FD0844B1B683E33C5
:103D90001B78042B09D923009E3318882100FFF7D4
:103DA000E5FD002801D000F059FF637C0793002B4C
:103DB0000FD07A4B1B683E331B78052B09D92300A3
:103DC000A03318882100FFF7D1FD002801D000F0B2
:103DD00048FFB0236C4ADB00D358002B5CDB637ACE
:103DE000002B59D0029B002B01D100F03DFF230096
:103DF000963318882100FFF717FD694BC018694BEF
:103E0000984201D900F030FF674AA36E9B182279CF
:103E1000002A64D0654A934201D900F025FFE36E81
:103E2000634A013B934201D900F01EFF2300703327
:103E30001B88604A013B9BB2934201D900F014FFFA
:103E4000230072331B78042B01D900F00DFF2300EF
:103E50007433594A1B88934201D900F005FF2300AF
:103E600076331B780F2B01D900F0FEFE2300773349
:103E70001B780F2B01D900F0F7FE230078334F4950
:103E80001B888B4201D900F0EFFE23007C331B8896
:103E9000934201D900F0E8FE404B1D682B003F33F0
:103EA0001E78002E01D100F001FFA37A002B0DD067
:103EB000C023354ADB00D358002B07DB012120004B
:103EC000FFF778FE002801D000F0D7FE0027012E72
:103ED00001D900F0D7FE00F0E9FE394AF8E6394A88
:103EE00099E7002F01D100F0E1FE38000FB0F0BDDE
:103EF000E379002B01D100F0EDFE637D002B3AD079
:103F00002B0040331B78002B35D02300A5331E78BF
:103F100021003000FFF760FD00282CD13E352B78C2
:103F20009E4228D2052E26D8300002F09FFB122692
:103F300051575D63237ADCE7631CDB7F002B01D1E3
:103F400000F0C8FE2B0041331B78012BD5D000F0C8
:103F5000C1FE029B002B0ED0230096331B88002B42
:103F600009D109AA21003000FFF794FC164B099AE9
:103F700007009A4244D8154FB7E7039B002BFAD0AD
:103F800023009833EAE7C0460000264000DC0BFF20
:103F9000C0EA2101E703000080F0FA0218090E08C8
:103FA00018FCFFFF18DDF50500CA91FE80BA8C01F0
:103FB000FEFF0300FE1F0000FF010000FF1F0000C6
:103FC00000E1F50500AB87043F0D03009F0F1A01C8
:103FD000049B002BCFD023009A33BFE7059B002B17
:103FE000C9D023009C33B9E7069B002BC3D0230024
:103FF0009E33B3E7079B002BBDD02300A033ADE772
:10400000002FB8D12300A8331B68002BB3D0B54EC6
:10401000B54D7343AB42AED82300A6331B78032BB8
:10402000A9D8A37D002B1DD0B04B1B6840331B7853
:10403000012B17D92300AC3318782100FFF7CCFCF3
:10404000002801D000F0A1FC2300AD331A7803331F
:104050001B687343AB4201D900F097FC032A01D9D6
:1040600000F093FCE37D002B1DD0A04B1B68403378
:104070001B78022B17D92300B43318782100FFF7DF
:10408000ABFC002801D000F0ABFC2300B5331A785C
:1040900003331B687343AB4201D900F0A1FC032A30
:1040A00001D900F09DFC237E002B1DD08F4B1B6897
:1040B00040331B78032B17D92300BC331878210019
:1040C000FFF78AFC002801D000F082FC2300BD33FA
:1040D0001A7803331B687343AB4201D900F078FCB4
:1040E000032A01D900F074FC637E002B1DD07F4BA6
:1040F0001B6840331B78042B17D92300C43318786E
:104100002100FFF769FC002801D000F07EFC2300AD
:10411000C5331A7803331B687343AB4201D900F0EF
:1041200074FC032A01D900F070FCA37E002B1ED082
:104130006E4B1B6840331B78052B18D92300CC33FA
:1041400018782100FFF748FC002801D000F09DFC02
:1041500022002300D0321268CD3356431B78AE4282
:1041600001D900F092FC032B01D900F08EFCE37E14
:10417000002B0AD1637F002B26D1A37C002B49D1D1
:10418000E37C002B58D15A4FAFE62300D4331B7881
:10419000210018000293FFF71FFC002812D126000F
:1041A000D5363378042B0DD809AA21000298FFF7E1
:1041B00071FB002806D13378099ADA4013004D4A82
:1041C0009342D7D94C4F90E62300D7331B78002B6E
:1041D00003D0012B05D0494F87E6237A002BCCD1A1
:1041E000F9E7237F002BF6D02300D6331B78012B71
:1041F000F3D0002B0CD0032BEDD1631CDB7F002B05
:10420000E9D03A4B1B6841331B78012BE3D1B4E76B
:10421000E379E3E7637D002B01D1394F65E62000A8
:10422000FFF716FC2300A2331978013102F032FAAD
:10423000304B9842A4D9F0E7637D002BA3D0200037
:10424000FFF706FCA8429ED82300A33303931978F6
:10425000013102F01FFA2379002B0AD0294B984232
:1042600091D8A37F002B06D1237D002B58D1264F58
:104270003BE6264BF3E723000222D8331B88FF32AC
:10428000934204D022D8002B28D0012B24D1617D69
:10429000002921D00226934208D01D4AB619934224
:1042A00004D01C4A0436934200D0073E2000FFF79A
:1042B000CFFB2300DA331978013102F0EBF931003A
:1042C00002F0E8F90B4B9842CED905E010498B4239
:1042D000DDD010498B42DAD00F4F06E601260F4899
:1042E000E7E7C04640420F0080D1F00818090E08E9
:1042F0008C0F1A010084D7178F0F1A018E0F1A0125
:104300008D0F1A0140787D018B0F1A0100E1F50530
:104310000102000001030000890F1A0100127A0057
:10432000E37C002BA3D02000FFF792FBA84200D92A
:1043300029E7039BE61C1978251D013102F0AAF933
:104340002300A43305931978013102F0A3F9C84B77
:1043500098428CD89621002001F0A8FA2378002BEF
:1043600033D06378002B0FD0F07F012806D9631D6E
:10437000DB7F002B10D101F07DFC0FE001F0F6FD9A
:104380000028F4D0BB4FB0E5E87F022801D0052813
:10439000EDD101F057FEF3E701F03EFC0028F1D12A
:1043A000B54BB6495A6CFF200A40E82189010A43FF
:1043B0005A64A278002A79D05A6C120A02403A2A2A
:1043C00003D1596CAE4A0A435A64AE4B1B68413361
:1043D0001B780293012B0CD1AB4EAC4D631C725970
:1043E000DB7F92006DD5002B03D17359DB00DB0816
:1043F00073510826A04A237A15680292354071D07D
:10440000002B07D17B2001F00DFA029B029A1B685A
:10441000B3431360237F9C4E002B1AD02300A022AD
:104420000325D6331B78D20004930499B3582B404C
:1044300099420ED001F0E8FF002801D000F01AFCEC
:10444000A0220499D200B3582940AB430D001D436C
:10445000B550A621C90073586279DB439B0700D190
:1044600082E07358002A00D185E002F01DF8A06BAD
:10447000002810D0E36B002B0DD00025216C2B0001
:104480002A000095FDF76AFC00952B002A00616C5C
:10449000E06BFDF763FC636B226BE16AA06A00F0DE
:1044A00099FC002800D1C2E0794F1EE55A6C120A2F
:1044B00002403A2A89D15A6C764802401143596425
:1044C00083E7002B95D001F0EFFF802372591B0684
:1044D00013437351029801F08BF9C0237259DB0525
:1044E000134385E7002B95D001F0DEFFA06D002877
:1044F0000FD0E36D002B0CD02B002A00216E00950D
:10450000FDF72CFC00952B002A00616EE06DFDF795
:1045100025FC230056331B785F4A002B17D0029BE3
:104520001B681A4080235B021343029A042613601F
:10453000029B5A4D1A6808231343029A1360029B88
:104540001B6933420CD1002D05D1554FCDE4029BA0
:104550001B681340E9E7012001F064F9013DEEE733
:10456000002D00D056E7F0E7002A04D14D4AB35899
:104570005B005B08B350A379002B0ED0E06C0028E1
:1045800008D0230054331B7808220093216D0023A8
:10459000FDF7E4FBA06C00F013FCA37C002B0FD014
:1045A000384B36481B6819008C311A680B68D218D2
:1045B0002300A23311681B7801401B020B431360D8
:1045C000E37C002B0ED02F4B1B681A008832196831
:1045D0001368C918039B0A681B7812021B06120A8B
:1045E00013430B60237D002B0ED0264B23481B6802
:1045F000190088311A680B68D218059B11681B785E
:1046000001401B020B4313602500122296352B88B4
:10461000FF32934223D12300A533197800291ED1FC
:10462000012000F0B3FC002807D01F4F5DE41F48B5
:1046300000F06EFC00289ED036E70121FFF7D6F887
:1046400000280AD1237B002B36D02988002000F0D7
:104650009DFC002830D0164F47E4164F45E4230058
:1046600098331988012000F091FC0028EAD0DCE79B
:1046700000E1F5056F0F1A0100002740FF00FFFF62
:10468000003A002018090E08000026403C050000F2
:104690005F0F1A01FFC5FFDFFFFFFEFF40420F0063
:1046A0005A0F1A012C0500004E0F1A01B80B00001A
:1046B0004F0F1A010F0F1A01A37B002B0AD0230002
:1046C0009A331988022000F061FC002802D0D04FF4
:1046D000FFF70BFCE37B002B67D1237C002B75D10C
:1046E000637C002B00D083E0B022D200B158637A03
:1046F000002900DB8FE0002B11D1B120C00033581E
:10470000C449194080239B050B433350B3585B00C9
:104710005B08B350C04AB3585B005B08B35023003A
:10472000A533039319780020FFF760F8002894D18F
:10473000BA4B1B6840331B78002B8ED02300A63366
:104740001A78032A89D8E021890073583030120181
:1047500083431343122273502B88FF32934200D1BC
:1047600092E0AE4D2B683F331B78002B00D09EE0CB
:104770000120FEF7E5FFA37D002800D108E1002B12
:1047800000D1FCE00220FEF7DBFFE37D002800D033
:104790000AE1002B00D109E12300B5331A78013B6F
:1047A00019780220FFF782F918E19C4B1B683E3311
:1047B0001B78032B91D923009C331988032000F028
:1047C000E5FB002889D0964FFFF78FFB934B1B68C2
:1047D0003E331B78042B83D923009E331988042091
:1047E00000F0D4FB002800D17AE78E4FFFF77DFB65
:1047F0008A4B1B683E331B78052B00D874E72300D7
:10480000A0331988052000F0C1FB002800D16BE718
:10481000854FFFF76AFB002B00D180E701F044FED3
:10482000E36E09A80993230070331B88838023005B
:1048300072331B788371230073331B78C371230099
:1048400074331B880381230076331B788372230023
:1048500077331B78C372230078331B88838123004E
:104860007A331B78837323007C331B88038200F028
:1048700007FC002805D16D4800F08CFC002800D111
:104880004DE76B4FFFF731FB039B1B78002B00D0EC
:1048900067E7637B002B00D1C7E6230098331988B4
:1048A000012000F073FB002800D15AE7BDE6C023C9
:1048B000DB00F258A37A002A0BDA002B27D101F093
:1048C000F3FD0120FEF74EFF002820D0594FFFF7DF
:1048D0000CFB002B1BD0230084331B7806AA137318
:1048E000230085331B785373230086331B7893731F
:1048F000230087331B78D373230088331B7813740A
:1049000001F0D2FD09A90120FFF7BCF8DCE72B6814
:104910003F331B78012B00D82AE7474BF258E37A44
:10492000002A0DDA002B00D022E701F0BDFD0220A5
:10493000FEF718FF002800D11AE7404FFFF7D5FA1D
:10494000002B00D114E7230090331B7806AA1373C1
:10495000230091331B785373230092331B78937396
:10496000230093331B78D373230094331B78137481
:1049700001F09AFD09A90220FFF784F8DAE7012087
:10498000FEF71AFF002800D1FCE62D4FFFF7ADFA25
:10499000002B00D1F6E62300AD331A78013B1978DD
:1049A0000120FFF783F8EDE7002B14D02B6840338C
:1049B0001B78032B17D90320FEF7C2FE237E0028A5
:1049C00046D0002B0FD10320FEF7F6FE00280AD0B8
:1049D0001C4FFFF78AFA0220FEF7EEFE0028E5D012
:1049E000194FFFF782FA2B6840331B78042B3AD912
:1049F0000420FEF7A5FE637E002849D0002B32D1AB
:104A00000420FEF7D9FE00282DD0104FFFF76DFAD5
:104A10004D0F1A01FFFFFFCF8C05000018090E088B
:104A20004C0F1A014B0F1A014A0F1A01400D0300D7
:104A30003F0F1A012F0F1A01040600002E0F1A0152
:104A40009E0F1A019C0F1A019D0F1A019B0F1A014C
:104A5000002BC8D02300BD331A78013B19780320FE
:104A6000FFF724F8B2E72B6840331B78052B1AD9DF
:104A70000520FEF765FEA37E00284CD0002B12D146
:104A80000520FEF799FE00280DD0944FFFF72DFA70
:104A9000002BE8D02300C5331A78013B1978042095
:104AA000FFF704F8AFE78E4BA27FF15800293DDAFB
:104AB000002A03D1F25852005208F250A02380215C
:104AC000DB00F0580902E27E08424DD0002A03D1F3
:104AD000F25884490A40F250637F002B0DD0029BAC
:104AE000C0211A682300D7331B7889001B020B40B2
:104AF0007D490A401343029A1360230055331D7801
:104B00007A4B1B78AB425BD001F07EFC00284FD083
:104B1000774FFFF7EAF9002BC5D02300CD331A7881
:104B2000013B19780520FEF7C1FFACE7002AC5D08C
:104B300021002200DA310878F158D83249004908BA
:104B40001288F150F5586B49000429406A4D2A40FB
:104B50000A43F250F25869490A400243F250802257
:104B6000F15812060A43A8E7002AB5D02000220017
:104B7000D5300078D432127884465A4DF058284007
:104B80001502F022F0501201F0582A405C4D2840E6
:104B90000243E0256046F2500003ED01F258054063
:104BA000584802402A43F250F2581143F15093E71B
:104BB0000121554AB3588B432B43B3504B4B1D70C7
:104BC000514DE3797259002A24DA002B12D1A32027
:104BD00000F028FE7359002B0CDA01F015FC0028B8
:104BE00096D1C0235B00F358DB0791D473595B0067
:104BF0005B0873512378002B08D0637D002B05D010
:104C00002300A8332079196800F050FE01F04CFC15
:104C1000FFF76BF9002BEDD07359002BEADB01F0A5
:104C2000F3FB002800D073E7802372591B0613435F
:104C3000DFE7364FFFF759F9354FFFF756F9354F94
:104C4000FFF753F9344FFFF750F9344FFFF74DF9A1
:104C5000334FFFF74AF9334FFFF747F9324FFFF76A
:104C600044F9324FFFF741F9314FFFF73EF9314F29
:104C7000FFF73BF9304FFFF738F9304F012E01D8DD
:104C8000FFF733F9E37A002B01D1FFF72AF9002F60
:104C900001D0FFF72AF92A4B2A4AD358002B05DB0B
:104CA00002212000FEF786FF0028E0D1237F002BA1
:104CB00001D1FFF722F92300D6331B78012B01D154
:104CC000FFF738F9002B01D1FFF712F9032B01D1BF
:104CD000FFF732F91C4FFFF708F9C0469A0F1A0187
:104CE00004050000FF7FFFFFFFFCFFFF21070E0808
:104CF0005C0F1A01FEFCFFFF01030000FFFF00FF35
:104D0000FFF0FFFFFF8FFFFF0C050000FE0F1A01F1
:104D1000EF0F1A01EE0F1A01DF0F1A01DE0F1A0151
:104D2000DD0F1A01DC0F1A01DB0F1A01DA0F1A016D
:104D3000CF0F1A01BE0F1A011F0F1A01BF0F1A0160
:104D40000406000000002640AF0F1A0170477047AC
:104D5000F0230A041B0330B51A400F240B00234034
:104D60001A43084B1D68830228691B188020C00164
:104D70001A5018582040401A411E884102494042AA
:104D8000084030BD18090E080300C200044B103063
:104D90001B6880021B69C0580F2318407047C0462B
:104DA00018090E08A6220549D2008B580220DB43C1
:104DB0009B0702D001238858184070470000264006
:104DC000024B984201D8024B1860704700E1F5058C
:104DD0002C070E08F0B516001F003B4A3B4B0C0099
:104DE000D15885B0029001920393002967DB3849BE
:104DF000384A4318934264D8631E632B61D8364AFD
:104E0000731E93425DD8354A7B1E934259D8FA21CE
:104E1000F5308900FF3001F03DFC050030483100DD
:104E200047437008381801F035FC8022844610236F
:104E300000201202010011430F004F43BC4500D374
:104E40000800013B5208002BF4D12900254B614397
:104E500058434B08C01801F01DFC234B984230D931
:104E60006D43224B2249E81801F014FC644360436F
:104E70006421323001F00EFC1E49704301F00AFC3F
:104E800003281ED8012801D8012358401A4A019B43
:104E90001A499B5800031940194B0B431843019BB7
:104EA00003999850019B039A00209A5802231343B8
:104EB000019A5350134B029A1A6005B0F0BD124884
:104EC000FBE71248F9E7C046000026402C05000029
:104ED00000DC0BFFC0EA2101E7030000CF07000060
:104EE00080841E00B36D0200890200005DF700009F
:104EF000BBEE0100A0BB0D0020FF000008C0FFFFBB
:104F0000F703000030070E0803004A0001004A00C2
:104F1000F8B5144C144D07006359002B1FDB802398
:104F2000060062591B0613436351FFF73BFF02283B
:104F30000AD0002E03D13000002F0FD009E001204D
:104F400000F070FC013EF0E7381E07D000208642DA
:104F500004D1635905485B005B086351F8BD044800
:104F6000FCE7C046000026402C05000002004A0075
:104F700003004A0010B5FFF715FF0023022801D1F6
:104F8000014B1B68180010BD30070E08104B1B6842
:104F90003E331B78834219D9042910D94B1EFF3B9D
:104FA000132B13D81F2319400A4B8000C018C023AD
:104FB00004229B00C1504033C25000207047072399
:104FC000D0301940034B8000C150F6E70248F5E7A6
:104FD00018090E080000264001004A00094A830013
:104FE0009B18D0229200985807221040042807D11D
:104FF000C022920098581F2303408020400018438D
:105000007047C0460000264010B5FFF7E7FF0228B2
:105010001CD005D8002814D0012814D0002011E09D
:105020001223FF33984214D01423FF33984218D030
:10503000033B9842F2D10C4A0C4BD058C00FC0032E
:1050400000E00B4810BD0B4B1868FBE7FFF792FF21
:10505000F8E7094B186904231840F3D080200002B8
:10506000F0E7014A054BE8E7000026400C05000088
:1050700000127A002C070E08000027403C050000B3
:1050800070B5B024224AE4001359002B3DDBC179EE
:1050900003684D1EA9419B0309069B0B0B4313514B
:1050A000038984881B491B04E4040B40E40C23435C
:1050B000194C1A4D1351FF24C37AE0261B012340DB
:1050C0008489F60024022C400F252343847A2C4047
:1050D000C0252343847BAD0524072C402343B12402
:1050E000E400135183790E4C1B02155933400D4EC9
:1050F00035402B431351038A00201B0415590B40E4
:10510000094929400B43135170BD0848FCE7C046CC
:10511000000026400000FF018405000000FF1F0082
:105120008C050000FFF8FFFFFFFF00FE03004A00B0
:10513000B023154ADB00D35810B59903DB01DB0F10
:10514000890BC371114B0160D3580F24D904DB01C3
:10515000DB0D0381B123DB00D358C90C818019001A
:105160002140817219092140C172D9029B009B0F15
:105170008373074BC90CD35881815A05DB01520F49
:10518000DB0D8271038210BD000026408405000003
:105190008C050000F7B58022B22607000500324BCF
:1051A000324C1206E158F6000A43E2500093042202
:1051B000A359134201D1002D35D1B1208023C00065
:1051C00022582B499B050A40134323500191002F7D
:1051D00001D0002D06D0B0228023D200A1581B069A
:1051E0000B43A3500126B223DB00E358334224D102
:1051F000002D1DD1002F24D0B121C9006258019B80
:105200001C481A4080239B051343B0226350D200F0
:10521000A3585B005B08A350009B009AE3585B0017
:105220005B08A350FEBD012000F0FCFA013DBEE783
:10523000300000F0F7FA013DD5E7002F01D0002D36
:10524000DAD0B122C0230020D200A1589B050B4325
:10525000A3508742E6D0681E85416842064D054B43
:105260002840C018DEE7C0468C050000000026403C
:10527000FFFFFFCF02004A00FEFFB5FFF0B5204B55
:105280001B683F331B78834233D31E4B80001E4C78
:10529000C0180359002B2ADB8E78B31E0E2B28D89A
:1052A0004F787B1E112B24D80B78CD789C46002D8F
:1052B00021D1152B1DD970239C451AD80A79022AB1
:1052C0000AD07F23614619400B003F023B4336045E
:1052D0003343ED062B430351C021120789050359BF
:1052E0000A400A490B401A4302510020F0BD084809
:1052F000FCE70848FAE7122BFBD93823DCE7C04665
:1053000018090E0800002640FC050000FFFFFFCF33
:1053100003004A0001004A0010B5104B421E1B68F2
:105320003F331B78934216D97F221F248030FF30F1
:105330000B4B8000C3581A400A701A0C2240180AFE
:105340008A701A012040E240487000209B009B0FA9
:10535000CA700B7110BD0348FCE7C04618090E085F
:105360000000264001004A00F0B587B00400FFF7B6
:105370004BFE0600002C38D101AD1422210028007C
:1053800001F07DFB2800FFF7D3FEB023274ADB00A6
:10539000D358002B03DAAC7B023C631E9C41EA79B4
:1053A000019F531E9A41A8880132002C1AD0002870
:1053B00018D0002A16D00023190001F017FA002394
:1053C0000C0005003A003000190001F00FFAE60762
:1053D0006A0832436308801859412A00230001F00B
:1053E000E5F90600300007B0F0BD114B1B683F33F4
:1053F0001B78A342F6D301AD05220021280001F05D
:105400003EFB200029008034FFF786FFFF34074B66
:10541000A400E3580024A34203DA2C79023C631E63
:105420009C412F786878AA78BFE7C04600002640E4
:1054300018090E08F8B5214B0F001B683F331A7886
:10544000431E9A4237D91E4B8000C41880230E0099
:105450001C4D1B0662591343635101221A4BE3583A
:10546000134218D1002E11D1002F18D06359174ABA
:1054700001201A4080239B051343635100F0D2F9A9
:10548000635913485B005B08635113E0012000F08F
:10549000C9F9013EE1E7002F01D0002EE6D06359A3
:1054A00000209B009B0F022B04D1C02362599B0557
:1054B00013436351F8BD0748FCE7C04618090E08BE
:1054C00000002640FC0500003C060000FFFFFFCF67
:1054D00002004A0001004A00F7B5484B0091150050
:1054E000984200D987E09A4200D984E0444B99421F
:1054F00000D980E00122434B1A70FF2845D80F23C2
:1055000007261C001840FF2D58D8FF222D011540FA
:105510002843F025E0222C43F025D20232432D030C
:105520002B43394D07262F683D00B4352D886E4337
:10553000350001963E6AAD192E68002EFCDA334D17
:105540002E78334D002E03D0324EAE59002E50DA55
:10555000314E32493160324E32493160A321C900A7
:105560006E58A6430643304C6E5028599843024368
:1055700000202A512D4B009A1A60264BEA503B6AB4
:10558000019AD31800225A60FEBD294B984205D8D3
:105590000F231840060000242000B4E7254B060A1C
:1055A000984204D8FF2304011C402643F3E7F0236C
:1055B00000021B01184006431F4BECE71C4A9542B2
:1055C00005D82A04F0252D032A403243A8E72A0AE9
:1055D00012043243174EB54207D8F0262D05360483
:1055E00035402A43FF252D049AE72D062A43134D03
:1055F00096E71348C3E71248C6E7C0460F06000007
:10560000FFFFFF0028070E0818090E0834070E08D0
:10561000000026401C050000080126401F1F000056
:10562000040126403D3D00001405000024070E083B
:10563000FF040000FF0500000F0F000000000F0F27
:1056400001004A00F8B5144B984219D90027134BB2
:10565000C018F6213F23124D124CF6302E59490046
:105660001E4001F017F8321A002F00D032183F21E7
:105670002B590A408B4313432B51002F09D0F8BDFF
:10568000094B984204D8EE33FF33181A0127E0E79C
:1056900000204042F3E7C046EC8100000080FFFF9D
:1056A0000000264018FF0000137E0000E02210B525
:1056B0000124094B80009200C018835880589B0633
:1056C0009B0F9C400F231840FFF74EFE63081818ED
:1056D000210000F0DFFF10BD00002640144B30B564
:1056E0001A68072413002C331B781F2B15D8830846
:1056F0001D00A5432C1E0FD103342040A040814043
:1057000012689B002032D3180A00FF2181401C68D8
:10571000624011406140196030BD802320401B066B
:10572000184380239B011268C91889008850F3E749
:1057300018090E08064B9A680300064810339B00B0
:10574000824202D1985899507047034AD058FBE7DB
:1057500000ED00E000000E0800040010F8B506009F
:105760000D0000283AD00023C05E002828DB718895
:10577000FFF7B4FF0024FF22032794460023F05EC6
:10578000716883B21F40FF006646BA40890131400C
:10579000D243B940002815DB114E83089B009B19AA
:1057A000C026B6009F593A40114399510D4B9A6853
:1057B0000D4B9A4202D12900FFF7BCFF2000F8BD33
:1057C0000A4CD8E70F263340083B064E9B089B0047
:1057D0009B19DE6932401143D961E7E7034CEDE7DD
:1057E00000E100E000ED00E000000E0801005600BE
:1057F00070B5802504002D02AC4205D8064B186810
:105800006043FAF761FE70BD044B1868FAF75CFE5E
:10581000034BE418F0E7C046F4000E08F0000E0851
:105820000080FFFF10B5034B1B785843FAF74CFE7E
:1058300010BDC046F8000E088022054B12069A647F
:10584000986C044BC043C0171840034BC0187047F6
:1058500000002740FDFFB9FF030046008022054BF2
:10586000120198585B68DBB2002B02D08023DB0268
:105870001843704700002640FEE7000002680A4B0C
:1058800010B51A6042685A6082689A60C268DA602D
:1058900002691A6142695A6182699A61C269DA6170
:1058A000FFF7EAFF10BDC046D0050E08F0B519227B
:1058B000002800D14B322A4B8A4292411B68524247
:1058C0001C00AC3424881D68671903253E68AE436C
:1058D00016433E601E68A4192768224E3740276091
:1058E0001C00AE3424881E68A7193E68AE433243BC
:1058F0003A601A681B4EA2181468264016600028E9
:105900000ED00020102904D9213088428041404225
:1059100001300F225B681968914308431860F0BD9D
:105920001A00553212788A42F3D21A00563212788F
:1059300001208A42EDD21A005732127800188A42AA
:10594000E7D21A005832127828008A42E1D21A00AF
:10595000593210788842804140420430D9E7C0462D
:1059600018090E08FFFCFFFFB0235B059A89002A87
:1059700002D0988980B2704780204000FBE7000089
:10598000074A084BD058B022E8235205DB00D35C0D
:105990001F221040C01A431E9841C0B27047C04633
:1059A000000026401CFF00000120024B1B68DB0D9D
:1059B000984370470000264070B5FFF7D5FF80235D
:1059C000194A5B00984215D111680F240B0002227E
:1059D0009C3318680B6818180368A34313430360CB
:1059E0000800A0300B6801685B181968A1430A43DE
:1059F0001A6070BDB02412680C4B11006405E358A6
:105A00000B4D9C312B40C02510680968AD00411832
:105A10000868284003430B601100A03113680A682E
:105A20009B18044AA258E3E718090E08481800001A
:105A3000FFFCFFFF4418000070B5FFF795FF8023BF
:105A40001A4A5B00984215D111680F240B000322FB
:105A50009C3318680B6818180368A343134303604A
:105A60000800A0300B6801685B181968A1430A435D
:105A70001A6070BDB02412680D4B11006405E35824
:105A80000C4D9C312B40C02510680968AD004118B1
:105A90000868284003430B601100A03113680A68AE
:105AA0009B18C1225201A258E2E7C04618090E080D
:105AB00024180000FFFCFFFF10B5FFF755FF8023FF
:105AC000124A5B0098420DD1136811491A009C32AA
:105AD00012681B689B181A681140C022D2010A4341
:105AE0001A6010BDB02112680A4B4905CB5811004D
:105AF00009489C310340C020096812688000521890
:105B0000116801400B431360EBE7C04618090E080B
:105B1000FF8FFFFF1C180000FFFCFFFF70B5FFF7B1
:105B200023FF8023154A5B0098420DD11368144966
:105B30001A009C3212681B689B181A681140802258
:105B4000D2010A431A6070BDB02412680D4B1100D7
:105B50006405E3580C4D9C312B40C0251068096842
:105B6000AD0041180868284003430B601100A031C4
:105B700013680A689B18054AA258E3E718090E083B
:105B8000FF8FFFFF50180000FFFCFFFF4C180000C4
:105B9000F8B51F4FC0253B682D011A009C321B68C9
:105BA00012689B181E68FFF7DFFE340080232C402C
:105BB0005B0098420FD10020FFF7E8F8B0235B05A7
:105BC0005A78002A03D05A780123222A01D8434266
:105BD00043411800F8BD3B680E4F19009C311A680C
:105BE000086812181068384010601A68086812189F
:105BF00028001768B043384310601B680A689B1878
:105C000018682840001B431E9841C0B2E2E7C04616
:105C100018090E08FFF3FFFF10B5114C23689B060F
:105C20001CD5FFF7C1FE2268002813D00D4B13438B
:105C30002360FFF7A5FE012802D150220A4BE25053
:105C40000120FFF7EFFD802300202268DB051343CE
:105C5000236010BD054B13432360F1E70448F8E7C8
:105C60000000264000000417307F000000000416EA
:105C70000400420010B5FFF797FE184C2368002877
:105C80000DD0174A134023600820FFF7CBFD642393
:105C90002268002A07DB002B03D1124811E0124AC8
:105CA000F0E7013BF4E7002BF7D023680F4A01200F
:105CB00013402360FFF7B6FDFFF776FE002801D101
:105CC000002010BDFFF75CFE0128F9D1B022084B7F
:105CD0005205D258074BE250F2E7C046000026407A
:105CE000FFFFFBAC02004200FFFFFBADFFFFFFFB2D
:105CF00010180000307F000010B50C4B1B684733B4
:105D00001B78002B11D08022094BD2055969114212
:105D100002D159690A435A61802296209969120674
:105D20000A439A618000FFF77DFD10BD18090E0837
:105D30000000264070B50C4B1B6847331B78002BC6
:105D400011D00722094DAC691440A0420BD0AB69B9
:105D5000934302401343AB61002904D0A04202D90F
:105D6000C820FFF75FFD70BD18090E08000026402F
:105D70007FB5274B86000D00F458042901D0012976
:105D800027D100200FE0A3682B420BD1E368290044
:105D90001A685B6802920193039302A823689847EC
:105DA0001C4B1C606469002C0BD01B4B9842EAD141
:105DB000012DE8D1174B18481A68184B9A5104B0B6
:105DC00070BD012DFBD1144B9842F3D0134B9C5165
:105DD000F5E7022906D10F4B1B68181EEFD01C698E
:105DE00003E01C006369002BFBD10020002CE6D0EF
:105DF000A3682B4209D1E36829001A685B68029204
:105E00000193039302A8236898472469EEE7C046EC
:105E100078070E0874070E08FF00420060070E089E
:105E2000B02370B55B055A7804002125002A01D003
:105E30005D78EDB2FFF798FD06000020FEF7A6FFA3
:105E40008023ADB25B00002811D19E4211D1222DDA
:105E50000FD880251E4B6D041B68240659681D4B06
:105E60002C40CA581C4D2A401443CC5070BD9E4251
:105E700028D0174A1268156A9E420ED162426241CA
:105E8000FF2352429A43154BD21801212800FBF7F9
:105E90009BFF002808D01248E8E7624262410123D4
:105EA00052429A430F4BEFE7094B1B68B8331B680C
:105EB000EB181A68002AFCDBEB6800201B0EA02BF5
:105EC000E9D1D3E7222DE6D9014B1B681D6AD5E73E
:105ED00018090E0818F00000FFFFFFFE0101003056
